{
  "_format": "hh-sol-artifact-1",
  "contractName": "AMMFactory",
  "sourceName": "contracts/AMMFactory.sol",
  "abi": [
    {
      "inputs": [
        {
          "internalType": "address",
          "name": "_referenceStable",
          "type": "address"
        },
        {
          "internalType": "address",
          "name": "_founderToken",
          "type": "address"
        },
        {
          "internalType": "address",
          "name": "_megalodonteToken",
          "type": "address"
        }
      ],
      "stateMutability": "nonpayable",
      "type": "constructor"
    },
    {
      "anonymous": false,
      "inputs": [
        {
          "indexed": true,
          "internalType": "address",
          "name": "token0",
          "type": "address"
        },
        {
          "indexed": true,
          "internalType": "address",
          "name": "token1",
          "type": "address"
        },
        {
          "indexed": false,
          "internalType": "address",
          "name": "pairAddress",
          "type": "address"
        },
        {
          "indexed": false,
          "internalType": "uint256",
          "name": "creationTime",
          "type": "uint256"
        }
      ],
      "name": "PairCreated",
      "type": "event"
    },
    {
      "anonymous": false,
      "inputs": [
        {
          "indexed": true,
          "internalType": "address",
          "name": "pairAddress",
          "type": "address"
        },
        {
          "indexed": false,
          "internalType": "uint256",
          "name": "stableAmount",
          "type": "uint256"
        }
      ],
      "name": "PoolHidden",
      "type": "event"
    },
    {
      "anonymous": false,
      "inputs": [
        {
          "indexed": true,
          "internalType": "address",
          "name": "pairAddress",
          "type": "address"
        },
        {
          "indexed": false,
          "internalType": "uint256",
          "name": "stableAmount",
          "type": "uint256"
        }
      ],
      "name": "PoolShown",
      "type": "event"
    },
    {
      "anonymous": false,
      "inputs": [
        {
          "indexed": true,
          "internalType": "address",
          "name": "pairAddress",
          "type": "address"
        },
        {
          "indexed": false,
          "internalType": "uint256",
          "name": "amount",
          "type": "uint256"
        },
        {
          "indexed": false,
          "internalType": "uint256",
          "name": "totalStable",
          "type": "uint256"
        }
      ],
      "name": "StableDeposited",
      "type": "event"
    },
    {
      "anonymous": false,
      "inputs": [
        {
          "indexed": true,
          "internalType": "address",
          "name": "pairAddress",
          "type": "address"
        },
        {
          "indexed": false,
          "internalType": "bool",
          "name": "visible",
          "type": "bool"
        },
        {
          "indexed": false,
          "internalType": "uint256",
          "name": "stableAmount",
          "type": "uint256"
        }
      ],
      "name": "VisibilityUpdated",
      "type": "event"
    },
    {
      "inputs": [],
      "name": "FOUNDER_TOKEN",
      "outputs": [
        {
          "internalType": "address",
          "name": "",
          "type": "address"
        }
      ],
      "stateMutability": "view",
      "type": "function"
    },
    {
      "inputs": [],
      "name": "GRACE_PERIOD",
      "outputs": [
        {
          "internalType": "uint256",
          "name": "",
          "type": "uint256"
        }
      ],
      "stateMutability": "view",
      "type": "function"
    },
    {
      "inputs": [],
      "name": "MEGALODON_TOKEN",
      "outputs": [
        {
          "internalType": "address",
          "name": "",
          "type": "address"
        }
      ],
      "stateMutability": "view",
      "type": "function"
    },
    {
      "inputs": [],
      "name": "MIN_STABLE",
      "outputs": [
        {
          "internalType": "uint256",
          "name": "",
          "type": "uint256"
        }
      ],
      "stateMutability": "view",
      "type": "function"
    },
    {
      "inputs": [],
      "name": "REFERENCE_STABLE",
      "outputs": [
        {
          "internalType": "address",
          "name": "",
          "type": "address"
        }
      ],
      "stateMutability": "view",
      "type": "function"
    },
    {
      "inputs": [],
      "name": "allPoolsLength",
      "outputs": [
        {
          "internalType": "uint256",
          "name": "",
          "type": "uint256"
        }
      ],
      "stateMutability": "view",
      "type": "function"
    },
    {
      "inputs": [
        {
          "internalType": "address",
          "name": "tokenA",
          "type": "address"
        },
        {
          "internalType": "address",
          "name": "tokenB",
          "type": "address"
        },
        {
          "internalType": "uint256",
          "name": "stableAmount",
          "type": "uint256"
        }
      ],
      "name": "createPair",
      "outputs": [
        {
          "internalType": "address",
          "name": "pairAddress",
          "type": "address"
        }
      ],
      "stateMutability": "nonpayable",
      "type": "function"
    },
    {
      "inputs": [
        {
          "internalType": "address",
          "name": "pairAddress",
          "type": "address"
        },
        {
          "internalType": "uint256",
          "name": "amount",
          "type": "uint256"
        }
      ],
      "name": "depositStableToPair",
      "outputs": [],
      "stateMutability": "nonpayable",
      "type": "function"
    },
    {
      "inputs": [
        {
          "internalType": "address",
          "name": "pairAddress",
          "type": "address"
        }
      ],
      "name": "enforceVisibilityForPair",
      "outputs": [],
      "stateMutability": "nonpayable",
      "type": "function"
    },
    {
      "inputs": [
        {
          "internalType": "address",
          "name": "",
          "type": "address"
        },
        {
          "internalType": "address",
          "name": "",
          "type": "address"
        }
      ],
      "name": "getPair",
      "outputs": [
        {
          "internalType": "address",
          "name": "",
          "type": "address"
        }
      ],
      "stateMutability": "view",
      "type": "function"
    },
    {
      "inputs": [
        {
          "internalType": "uint256",
          "name": "index",
          "type": "uint256"
        }
      ],
      "name": "getPool",
      "outputs": [
        {
          "internalType": "address",
          "name": "token0",
          "type": "address"
        },
        {
          "internalType": "address",
          "name": "token1",
          "type": "address"
        },
        {
          "internalType": "address",
          "name": "pairAddress",
          "type": "address"
        },
        {
          "internalType": "uint256",
          "name": "creationTime",
          "type": "uint256"
        },
        {
          "internalType": "uint256",
          "name": "stableDeposited",
          "type": "uint256"
        },
        {
          "internalType": "bool",
          "name": "visible",
          "type": "bool"
        }
      ],
      "stateMutability": "view",
      "type": "function"
    },
    {
      "inputs": [
        {
          "internalType": "address",
          "name": "",
          "type": "address"
        }
      ],
      "name": "poolIndexByPair",
      "outputs": [
        {
          "internalType": "uint256",
          "name": "",
          "type": "uint256"
        }
      ],
      "stateMutability": "view",
      "type": "function"
    },
    {
      "inputs": [
        {
          "internalType": "uint256",
          "name": "",
          "type": "uint256"
        }
      ],
      "name": "pools",
      "outputs": [
        {
          "internalType": "address",
          "name": "token0",
          "type": "address"
        },
        {
          "internalType": "address",
          "name": "token1",
          "type": "address"
        },
        {
          "internalType": "address",
          "name": "pairAddress",
          "type": "address"
        },
        {
          "internalType": "uint256",
          "name": "creationTime",
          "type": "uint256"
        },
        {
          "internalType": "uint256",
          "name": "stableDeposited",
          "type": "uint256"
        },
        {
          "internalType": "bool",
          "name": "visible",
          "type": "bool"
        }
      ],
      "stateMutability": "view",
      "type": "function"
    }
  ],
  "bytecode": "0x60e06040523480156200001157600080fd5b50604051620011aa380380620011aa83398101604081905262000034916200014c565b6001600160a01b038316620000815760405162461bcd60e51b815260206004820152600e60248201526d5a45524f5f5245464552454e434560901b60448201526064015b60405180910390fd5b6001600160a01b038216620000c85760405162461bcd60e51b815260206004820152600c60248201526b2d22a927afa327aaa72222a960a11b604482015260640162000078565b6001600160a01b038116620001115760405162461bcd60e51b815260206004820152600e60248201526d2d22a927afa6a2a3a0a627a227a760911b604482015260640162000078565b6001600160a01b0392831660805290821660a0521660c05262000196565b80516001600160a01b03811681146200014757600080fd5b919050565b6000806000606084860312156200016257600080fd5b6200016d846200012f565b92506200017d602085016200012f565b91506200018d604085016200012f565b90509250925092565b60805160a05160c051610fc8620001e26000396000818161015d0152610cee0152600081816101fa0152610c6a01526000818161022101528181610a4d0152610cac0152610fc86000f3fe608060405234801561001057600080fd5b50600436106100cf5760003560e01c8063a40e56b31161008c578063c0df884c11610066578063c0df884c1461021c578063c1a287e214610243578063e6a439051461024d578063efde4e641461027e57600080fd5b8063a40e56b3146101cf578063ac4afa38146101e2578063c0b8acac146101f557600080fd5b8063068bcd8d146100d45780630d43e80b1461012a578063381f87c4146101585780636b600d1c1461019757806377185075146101aa5780639d76aa76146101bf575b600080fd5b6100e76100e2366004610dfd565b610286565b604080516001600160a01b039788168152958716602087015293909516928401929092526060830152608082015290151560a082015260c0015b60405180910390f35b61014a610138366004610e32565b60026020526000908152604090205481565b604051908152602001610121565b61017f7f000000000000000000000000000000000000000000000000000000000000000081565b6040516001600160a01b039091168152602001610121565b61017f6101a5366004610e54565b610345565b6101bd6101b8366004610e32565b610733565b005b61014a680ad78ebc5ac620000081565b6101bd6101dd366004610e90565b610954565b6100e76101f0366004610dfd565b6109d2565b61017f7f000000000000000000000000000000000000000000000000000000000000000081565b61017f7f000000000000000000000000000000000000000000000000000000000000000081565b61014a6202a30081565b61017f61025b366004610eba565b60006020818152928152604080822090935290815220546001600160a01b031681565b60015461014a565b60008060008060008060018054905087106102dd5760405162461bcd60e51b8152602060048201526012602482015271494e4445585f4f55545f4f465f52414e474560701b60448201526064015b60405180910390fd5b6000600188815481106102f2576102f2610eed565b60009182526020909120600690910201805460018201546002830154600384015460048501546005909501546001600160a01b039485169e9385169d50939091169a50985091965060ff16945092505050565b6000826001600160a01b0316846001600160a01b0316141561039f5760405162461bcd60e51b81526020600482015260136024820152724944454e544943414c5f41444452455353455360681b60448201526064016102d4565b600080846001600160a01b0316866001600160a01b0316106103c25784866103c5565b85855b90925090506001600160a01b03821661040f5760405162461bcd60e51b815260206004820152600c60248201526b5a45524f5f4144445245535360a01b60448201526064016102d4565b6001600160a01b03828116600090815260208181526040808320858516845290915290205416156104705760405162461bcd60e51b815260206004820152600b60248201526a504149525f45584953545360a81b60448201526064016102d4565b60408051426020808301829052606086811b6bffffffffffffffffffffffff199081168587015286821b811660548601523390911b1660688401528351605c818503018152607c84018086528151918301919091206001600160a01b038089166000818152808652888120838b1680835290875289822080548587166001600160a01b031991821681179092558389528b842085855289528b8420805482168317905561013c8b018c5260fc8b01848152948852609c8b0192835260bc8b0182815260dc8c019a8b52600161011c909c018c81528c54808e018e558d87528a517fb10e2d527612073b26eecdfd717e6a320cf44b4afac2b0732d9fcbe2b7fa0cf6600690920291820180548616918b1691909117905594517fb10e2d527612073b26eecdfd717e6a320cf44b4afac2b0732d9fcbe2b7fa0cf7860180548516918a1691909117905590517fb10e2d527612073b26eecdfd717e6a320cf44b4afac2b0732d9fcbe2b7fa0cf885018054909316971696909617905597517fb10e2d527612073b26eecdfd717e6a320cf44b4afac2b0732d9fcbe2b7fa0cf982015591517fb10e2d527612073b26eecdfd717e6a320cf44b4afac2b0732d9fcbe2b7fa0cfa83015591517fb10e2d527612073b26eecdfd717e6a320cf44b4afac2b0732d9fcbe2b7fa0cfb909101805460ff19169115159190911790559454938552600290925293909220559350841561068c5761068c8486610a2b565b61069583610c50565b806106a457506106a482610c50565b156106b9576106b4846001610d36565b6106df565b680ad78ebc5ac620000085106106d4576106b4846001610d36565b6106df846001610d36565b604080516001600160a01b03868116825242602083015280851692908616917f0d3648bd0f6ba80134a33ba9275ac585d9d315f0ad8355cddefde31afa28d0e9910160405180910390a35050509392505050565b6001600160a01b038116600090815260026020526040902054806107695760405162461bcd60e51b81526004016102d490610f03565b600060016107778184610f41565b8154811061078757610787610eed565b6000918252602090912060069091020180549091506107ae906001600160a01b0316610c50565b806107cb575060018101546107cb906001600160a01b0316610c50565b806107e8575060028101546107e8906001600160a01b0316610c50565b1561080957600581015460ff1661080457610804836001610d36565b505050565b680ad78ebc5ac620000081600401541061088057600581015460ff1661080457610834836001610d36565b826001600160a01b03167f80413431cde25e9de215c5a497b067986b40e2a1f310cc0275c3739ca12549b7826004015460405161087391815260200190565b60405180910390a2505050565b6202a30081600301546108939190610f58565b42116108b057600581015460ff1661080457610804836001610d36565b600581015460ff16156108045760058101805460ff1916905560048101546040519081526001600160a01b038416907f46380aaa33d02b5847842b079157b4b3c5c49df29248c7fc4b95c819e8c09a1f9060200160405180910390a26004810154604080516000815260208101929092526001600160a01b038516917f083d57c8ed698c66d4c7c4aa93638d9f755bee04e30ee5cab028caa074cf77c79101610873565b600081116109925760405162461bcd60e51b815260206004820152600b60248201526a16915493d7d05353d5539560aa1b60448201526064016102d4565b6001600160a01b038216600090815260026020526040902054806109c85760405162461bcd60e51b81526004016102d490610f03565b6108048383610a2b565b600181815481106109e257600080fd5b60009182526020909120600690910201805460018201546002830154600384015460048501546005909501546001600160a01b0394851696509284169491909316929160ff1686565b6040516323b872dd60e01b8152336004820152306024820152604481018290527f0000000000000000000000000000000000000000000000000000000000000000906001600160a01b038216906323b872dd90606401602060405180830381600087803b158015610a9b57600080fd5b505af1158015610aaf573d6000803e3d6000fd5b505050506040513d601f19601f82011682018060405250810190610ad39190610f70565b610b165760405162461bcd60e51b815260206004820152601460248201527314d51050931157d514905394d1915497d190525360621b60448201526064016102d4565b6001600160a01b03831660009081526002602052604090205480610b4c5760405162461bcd60e51b81526004016102d490610f03565b60006001610b5a8184610f41565b81548110610b6a57610b6a610eed565b9060005260206000209060060201905083816004016000828254610b8e9190610f58565b909155505060048101546040516001600160a01b038716917f359aca8d05c44e10f6a3cff7793d6aa532074fae4219f8de6763bc4060bcc72391610bda91888252602082015260400190565b60405180910390a2680ad78ebc5ac6200000816004015410610c4957610c01856001610d36565b846001600160a01b03167f80413431cde25e9de215c5a497b067986b40e2a1f310cc0275c3739ca12549b78260040154604051610c4091815260200190565b60405180910390a25b5050505050565b60006001600160a01b038216610c6857506000919050565b7f00000000000000000000000000000000000000000000000000000000000000006001600160a01b0316826001600160a01b03161415610caa57506001919050565b7f00000000000000000000000000000000000000000000000000000000000000006001600160a01b0316826001600160a01b03161415610cec57506001919050565b7f00000000000000000000000000000000000000000000000000000000000000006001600160a01b0316826001600160a01b03161415610d2e57506001919050565b506000919050565b6001600160a01b03821660009081526002602052604090205480610d6c5760405162461bcd60e51b81526004016102d490610f03565b60006001610d7a8184610f41565b81548110610d8a57610d8a610eed565b600091825260209182902060069091020160058101805460ff1916861515908117909155600482015460408051928352938201529092506001600160a01b038616917f083d57c8ed698c66d4c7c4aa93638d9f755bee04e30ee5cab028caa074cf77c7910160405180910390a250505050565b600060208284031215610e0f57600080fd5b5035919050565b80356001600160a01b0381168114610e2d57600080fd5b919050565b600060208284031215610e4457600080fd5b610e4d82610e16565b9392505050565b600080600060608486031215610e6957600080fd5b610e7284610e16565b9250610e8060208501610e16565b9150604084013590509250925092565b60008060408385031215610ea357600080fd5b610eac83610e16565b946020939093013593505050565b60008060408385031215610ecd57600080fd5b610ed683610e16565b9150610ee460208401610e16565b90509250929050565b634e487b7160e01b600052603260045260246000fd5b6020808252600e908201526d1410525497d393d517d193d5539160921b604082015260600190565b634e487b7160e01b600052601160045260246000fd5b600082821015610f5357610f53610f2b565b500390565b60008219821115610f6b57610f6b610f2b565b500190565b600060208284031215610f8257600080fd5b81518015158114610e4d57600080fdfea2646970667358221220b476371948384451aebc6b30ccfb116b894f034131e555ffb7017a42eac8019364736f6c63430008090033",
  "linkReferences": {},
  "deployedLinkReferences": {}
}