{"contracts/AMMFactory.sol":{"AMMFactory":{"abi":[{"inputs":[{"internalType":"address","name":"_referenceStable","type":"address"},{"internalType":"address","name":"_founderToken","type":"address"}],"stateMutability":"nonpayable","type":"constructor"},{"anonymous":false,"inputs":[{"indexed":true,"internalType":"address","name":"token0","type":"address"},{"indexed":true,"internalType":"address","name":"token1","type":"address"},{"indexed":false,"internalType":"address","name":"pairAddress","type":"address"},{"indexed":false,"internalType":"uint256","name":"creationTime","type":"uint256"}],"name":"PairCreated","type":"event"},{"anonymous":false,"inputs":[{"indexed":true,"internalType":"address","name":"pairAddress","type":"address"},{"indexed":false,"internalType":"uint256","name":"stableAmount","type":"uint256"}],"name":"PoolHidden","type":"event"},{"anonymous":false,"inputs":[{"indexed":true,"internalType":"address","name":"pairAddress","type":"address"},{"indexed":false,"internalType":"uint256","name":"stableAmount","type":"uint256"}],"name":"PoolShown","type":"event"},{"anonymous":false,"inputs":[{"indexed":true,"internalType":"address","name":"pairAddress","type":"address"},{"indexed":false,"internalType":"uint256","name":"amount","type":"uint256"},{"indexed":false,"internalType":"uint256","name":"totalStable","type":"uint256"}],"name":"StableDeposited","type":"event"},{"anonymous":false,"inputs":[{"indexed":true,"internalType":"address","name":"pairAddress","type":"address"},{"indexed":false,"internalType":"bool","name":"visible","type":"bool"},{"indexed":false,"internalType":"uint256","name":"stableAmount","type":"uint256"}],"name":"VisibilityUpdated","type":"event"},{"inputs":[],"name":"FOUNDER_TOKEN","outputs":[{"internalType":"address","name":"","type":"address"}],"stateMutability":"view","type":"function"},{"inputs":[],"name":"GRACE_PERIOD","outputs":[{"internalType":"uint256","name":"","type":"uint256"}],"stateMutability":"view","type":"function"},{"inputs":[],"name":"MIN_STABLE","outputs":[{"internalType":"uint256","name":"","type":"uint256"}],"stateMutability":"view","type":"function"},{"inputs":[],"name":"REFERENCE_STABLE","outputs":[{"internalType":"address","name":"","type":"address"}],"stateMutability":"view","type":"function"},{"inputs":[],"name":"allPoolsLength","outputs":[{"internalType":"uint256","name":"","type":"uint256"}],"stateMutability":"view","type":"function"},{"inputs":[{"internalType":"address","name":"tokenA","type":"address"},{"internalType":"address","name":"tokenB","type":"address"},{"internalType":"uint256","name":"stableAmount","type":"uint256"}],"name":"createPair","outputs":[{"internalType":"address","name":"pairAddress","type":"address"}],"stateMutability":"nonpayable","type":"function"},{"inputs":[{"internalType":"address","name":"pairAddress","type":"address"},{"internalType":"uint256","name":"amount","type":"uint256"}],"name":"depositStableToPair","outputs":[],"stateMutability":"nonpayable","type":"function"},{"inputs":[{"internalType":"address","name":"pairAddress","type":"address"}],"name":"enforceVisibilityForPair","outputs":[],"stateMutability":"nonpayable","type":"function"},{"inputs":[{"internalType":"address","name":"","type":"address"},{"internalType":"address","name":"","type":"address"}],"name":"getPair","outputs":[{"internalType":"address","name":"","type":"address"}],"stateMutability":"view","type":"function"},{"inputs":[{"internalType":"uint256","name":"index","type":"uint256"}],"name":"getPool","outputs":[{"internalType":"address","name":"token0","type":"address"},{"internalType":"address","name":"token1","type":"address"},{"internalType":"address","name":"pairAddress","type":"address"},{"internalType":"uint256","name":"creationTime","type":"uint256"},{"internalType":"uint256","name":"stableDeposited","type":"uint256"},{"internalType":"bool","name":"visible","type":"bool"}],"stateMutability":"view","type":"function"},{"inputs":[{"internalType":"address","name":"","type":"address"}],"name":"poolIndexByPair","outputs":[{"internalType":"uint256","name":"","type":"uint256"}],"stateMutability":"view","type":"function"},{"inputs":[{"internalType":"uint256","name":"","type":"uint256"}],"name":"pools","outputs":[{"internalType":"address","name":"token0","type":"address"},{"internalType":"address","name":"token1","type":"address"},{"internalType":"address","name":"pairAddress","type":"address"},{"internalType":"uint256","name":"creationTime","type":"uint256"},{"internalType":"uint256","name":"stableDeposited","type":"uint256"},{"internalType":"bool","name":"visible","type":"bool"}],"stateMutability":"view","type":"function"}],"evm":{"bytecode":{"linkReferences":{},"object":"60c060405234801561001057600080fd5b506040516110a43803806110a483398101604081905261002f916100f3565b6001600160a01b03821661007b5760405162461bcd60e51b815260206004820152600e60248201526d5a45524f5f5245464552454e434560901b60448201526064015b60405180910390fd5b6001600160a01b0381166100c05760405162461bcd60e51b815260206004820152600c60248201526b2d22a927afa327aaa72222a960a11b6044820152606401610072565b6001600160a01b039182166080521660a052610126565b80516001600160a01b03811681146100ee57600080fd5b919050565b6000806040838503121561010657600080fd5b61010f836100d7565b915061011d602084016100d7565b90509250929050565b60805160a051610f44610160600039600081816101b80152610c280152600081816101df01528181610a0b0152610c6a0152610f446000f3fe608060405234801561001057600080fd5b50600436106100b45760003560e01c8063ac4afa3811610071578063ac4afa38146101a0578063c0b8acac146101b3578063c0df884c146101da578063c1a287e214610201578063e6a439051461020b578063efde4e641461023c57600080fd5b8063068bcd8d146100b95780630d43e80b1461010f5780636b600d1c1461013d57806377185075146101685780639d76aa761461017d578063a40e56b31461018d575b600080fd5b6100cc6100c7366004610d79565b610244565b604080516001600160a01b039788168152958716602087015293909516928401929092526060830152608082015290151560a082015260c0015b60405180910390f35b61012f61011d366004610dae565b60026020526000908152604090205481565b604051908152602001610106565b61015061014b366004610dd0565b610303565b6040516001600160a01b039091168152602001610106565b61017b610176366004610dae565b6106f1565b005b61012f680ad78ebc5ac620000081565b61017b61019b366004610e0c565b610912565b6100cc6101ae366004610d79565b610990565b6101507f000000000000000000000000000000000000000000000000000000000000000081565b6101507f000000000000000000000000000000000000000000000000000000000000000081565b61012f6202a30081565b610150610219366004610e36565b60006020818152928152604080822090935290815220546001600160a01b031681565b60015461012f565b600080600080600080600180549050871061029b5760405162461bcd60e51b8152602060048201526012602482015271494e4445585f4f55545f4f465f52414e474560701b60448201526064015b60405180910390fd5b6000600188815481106102b0576102b0610e69565b60009182526020909120600690910201805460018201546002830154600384015460048501546005909501546001600160a01b039485169e9385169d50939091169a50985091965060ff16945092505050565b6000826001600160a01b0316846001600160a01b0316141561035d5760405162461bcd60e51b81526020600482015260136024820152724944454e544943414c5f41444452455353455360681b6044820152606401610292565b600080846001600160a01b0316866001600160a01b031610610380578486610383565b85855b90925090506001600160a01b0382166103cd5760405162461bcd60e51b815260206004820152600c60248201526b5a45524f5f4144445245535360a01b6044820152606401610292565b6001600160a01b038281166000908152602081815260408083208585168452909152902054161561042e5760405162461bcd60e51b815260206004820152600b60248201526a504149525f45584953545360a81b6044820152606401610292565b60408051426020808301829052606086811b6bffffffffffffffffffffffff199081168587015286821b811660548601523390911b1660688401528351605c818503018152607c84018086528151918301919091206001600160a01b038089166000818152808652888120838b1680835290875289822080548587166001600160a01b031991821681179092558389528b842085855289528b8420805482168317905561013c8b018c5260fc8b01848152948852609c8b0192835260bc8b0182815260dc8c019a8b52600161011c909c018c81528c54808e018e558d87528a517fb10e2d527612073b26eecdfd717e6a320cf44b4afac2b0732d9fcbe2b7fa0cf6600690920291820180548616918b1691909117905594517fb10e2d527612073b26eecdfd717e6a320cf44b4afac2b0732d9fcbe2b7fa0cf7860180548516918a1691909117905590517fb10e2d527612073b26eecdfd717e6a320cf44b4afac2b0732d9fcbe2b7fa0cf885018054909316971696909617905597517fb10e2d527612073b26eecdfd717e6a320cf44b4afac2b0732d9fcbe2b7fa0cf982015591517fb10e2d527612073b26eecdfd717e6a320cf44b4afac2b0732d9fcbe2b7fa0cfa83015591517fb10e2d527612073b26eecdfd717e6a320cf44b4afac2b0732d9fcbe2b7fa0cfb909101805460ff19169115159190911790559454938552600290925293909220559350841561064a5761064a84866109e9565b61065383610c0e565b80610662575061066282610c0e565b1561067757610672846001610cb2565b61069d565b680ad78ebc5ac6200000851061069257610672846001610cb2565b61069d846001610cb2565b604080516001600160a01b03868116825242602083015280851692908616917f0d3648bd0f6ba80134a33ba9275ac585d9d315f0ad8355cddefde31afa28d0e9910160405180910390a35050509392505050565b6001600160a01b038116600090815260026020526040902054806107275760405162461bcd60e51b815260040161029290610e7f565b600060016107358184610ebd565b8154811061074557610745610e69565b60009182526020909120600690910201805490915061076c906001600160a01b0316610c0e565b8061078957506001810154610789906001600160a01b0316610c0e565b806107a6575060028101546107a6906001600160a01b0316610c0e565b156107c757600581015460ff166107c2576107c2836001610cb2565b505050565b680ad78ebc5ac620000081600401541061083e57600581015460ff166107c2576107f2836001610cb2565b826001600160a01b03167f80413431cde25e9de215c5a497b067986b40e2a1f310cc0275c3739ca12549b7826004015460405161083191815260200190565b60405180910390a2505050565b6202a30081600301546108519190610ed4565b421161086e57600581015460ff166107c2576107c2836001610cb2565b600581015460ff16156107c25760058101805460ff1916905560048101546040519081526001600160a01b038416907f46380aaa33d02b5847842b079157b4b3c5c49df29248c7fc4b95c819e8c09a1f9060200160405180910390a26004810154604080516000815260208101929092526001600160a01b038516917f083d57c8ed698c66d4c7c4aa93638d9f755bee04e30ee5cab028caa074cf77c79101610831565b600081116109505760405162461bcd60e51b815260206004820152600b60248201526a16915493d7d05353d5539560aa1b6044820152606401610292565b6001600160a01b038216600090815260026020526040902054806109865760405162461bcd60e51b815260040161029290610e7f565b6107c283836109e9565b600181815481106109a057600080fd5b60009182526020909120600690910201805460018201546002830154600384015460048501546005909501546001600160a01b0394851696509284169491909316929160ff1686565b6040516323b872dd60e01b8152336004820152306024820152604481018290527f0000000000000000000000000000000000000000000000000000000000000000906001600160a01b038216906323b872dd90606401602060405180830381600087803b158015610a5957600080fd5b505af1158015610a6d573d6000803e3d6000fd5b505050506040513d601f19601f82011682018060405250810190610a919190610eec565b610ad45760405162461bcd60e51b815260206004820152601460248201527314d51050931157d514905394d1915497d190525360621b6044820152606401610292565b6001600160a01b03831660009081526002602052604090205480610b0a5760405162461bcd60e51b815260040161029290610e7f565b60006001610b188184610ebd565b81548110610b2857610b28610e69565b9060005260206000209060060201905083816004016000828254610b4c9190610ed4565b909155505060048101546040516001600160a01b038716917f359aca8d05c44e10f6a3cff7793d6aa532074fae4219f8de6763bc4060bcc72391610b9891888252602082015260400190565b60405180910390a2680ad78ebc5ac6200000816004015410610c0757610bbf856001610cb2565b846001600160a01b03167f80413431cde25e9de215c5a497b067986b40e2a1f310cc0275c3739ca12549b78260040154604051610bfe91815260200190565b60405180910390a25b5050505050565b60006001600160a01b038216610c2657506000919050565b7f00000000000000000000000000000000000000000000000000000000000000006001600160a01b0316826001600160a01b03161415610c6857506001919050565b7f00000000000000000000000000000000000000000000000000000000000000006001600160a01b0316826001600160a01b03161415610caa57506001919050565b506000919050565b6001600160a01b03821660009081526002602052604090205480610ce85760405162461bcd60e51b815260040161029290610e7f565b60006001610cf68184610ebd565b81548110610d0657610d06610e69565b600091825260209182902060069091020160058101805460ff1916861515908117909155600482015460408051928352938201529092506001600160a01b038616917f083d57c8ed698c66d4c7c4aa93638d9f755bee04e30ee5cab028caa074cf77c7910160405180910390a250505050565b600060208284031215610d8b57600080fd5b5035919050565b80356001600160a01b0381168114610da957600080fd5b919050565b600060208284031215610dc057600080fd5b610dc982610d92565b9392505050565b600080600060608486031215610de557600080fd5b610dee84610d92565b9250610dfc60208501610d92565b9150604084013590509250925092565b60008060408385031215610e1f57600080fd5b610e2883610d92565b946020939093013593505050565b60008060408385031215610e4957600080fd5b610e5283610d92565b9150610e6060208401610d92565b90509250929050565b634e487b7160e01b600052603260045260246000fd5b6020808252600e908201526d1410525497d393d517d193d5539160921b604082015260600190565b634e487b7160e01b600052601160045260246000fd5b600082821015610ecf57610ecf610ea7565b500390565b60008219821115610ee757610ee7610ea7565b500190565b600060208284031215610efe57600080fd5b81518015158114610dc957600080fdfea2646970667358221220627b127623d9c883ab1bbef15f7740ec1e68ab435db808db0850b12bc5e5e45064736f6c63430008090033","opcodes":"PUSH1 0xC0 PUSH1 0x40 MSTORE CALLVALUE DUP1 ISZERO PUSH2 0x10 JUMPI PUSH1 0x0 DUP1 REVERT JUMPDEST POP PUSH1 0x40 MLOAD PUSH2 0x10A4 CODESIZE SUB DUP1 PUSH2 0x10A4 DUP4 CODECOPY DUP2 ADD PUSH1 0x40 DUP2 SWAP1 MSTORE PUSH2 0x2F SWAP2 PUSH2 0xF3 JUMP JUMPDEST PUSH1 0x1 PUSH1 0x1 PUSH1 0xA0 SHL SUB DUP3 AND PUSH2 0x7B JUMPI PUSH1 0x40 MLOAD PUSH3 0x461BCD PUSH1 0xE5 SHL DUP2 MSTORE PUSH1 0x20 PUSH1 0x4 DUP3 ADD MSTORE PUSH1 0xE PUSH1 0x24 DUP3 ADD MSTORE PUSH14 0x5A45524F5F5245464552454E4345 PUSH1 0x90 SHL PUSH1 0x44 DUP3 ADD MSTORE PUSH1 0x64 ADD JUMPDEST PUSH1 0x40 MLOAD DUP1 SWAP2 SUB SWAP1 REVERT JUMPDEST PUSH1 0x1 PUSH1 0x1 PUSH1 0xA0 SHL SUB DUP2 AND PUSH2 0xC0 JUMPI PUSH1 0x40 MLOAD PUSH3 0x461BCD PUSH1 0xE5 SHL DUP2 MSTORE PUSH1 0x20 PUSH1 0x4 DUP3 ADD MSTORE PUSH1 0xC PUSH1 0x24 DUP3 ADD MSTORE PUSH12 0x2D22A927AFA327AAA72222A9 PUSH1 0xA1 SHL PUSH1 0x44 DUP3 ADD MSTORE PUSH1 0x64 ADD PUSH2 0x72 JUMP JUMPDEST PUSH1 0x1 PUSH1 0x1 PUSH1 0xA0 SHL SUB SWAP2 DUP3 AND PUSH1 0x80 MSTORE AND PUSH1 0xA0 MSTORE PUSH2 0x126 JUMP JUMPDEST DUP1 MLOAD PUSH1 0x1 PUSH1 0x1 PUSH1 0xA0 SHL SUB DUP2 AND DUP2 EQ PUSH2 0xEE JUMPI PUSH1 0x0 DUP1 REVERT JUMPDEST SWAP2 SWAP1 POP JUMP JUMPDEST PUSH1 0x0 DUP1 PUSH1 0x40 DUP4 DUP6 SUB SLT ISZERO PUSH2 0x106 JUMPI PUSH1 0x0 DUP1 REVERT JUMPDEST PUSH2 0x10F DUP4 PUSH2 0xD7 JUMP JUMPDEST SWAP2 POP PUSH2 0x11D PUSH1 0x20 DUP5 ADD PUSH2 0xD7 JUMP JUMPDEST SWAP1 POP SWAP3 POP SWAP3 SWAP1 POP JUMP JUMPDEST PUSH1 0x80 MLOAD PUSH1 0xA0 MLOAD PUSH2 0xF44 PUSH2 0x160 PUSH1 0x0 CODECOPY PUSH1 0x0 DUP2 DUP2 PUSH2 0x1B8 ADD MSTORE PUSH2 0xC28 ADD MSTORE PUSH1 0x0 DUP2 DUP2 PUSH2 0x1DF ADD MSTORE DUP2 DUP2 PUSH2 0xA0B ADD MSTORE PUSH2 0xC6A ADD MSTORE PUSH2 0xF44 PUSH1 0x0 RETURN INVALID PUSH1 0x80 PUSH1 0x40 MSTORE CALLVALUE DUP1 ISZERO PUSH2 0x10 JUMPI PUSH1 0x0 DUP1 REVERT JUMPDEST POP PUSH1 0x4 CALLDATASIZE LT PUSH2 0xB4 JUMPI PUSH1 0x0 CALLDATALOAD PUSH1 0xE0 SHR DUP1 PUSH4 0xAC4AFA38 GT PUSH2 0x71 JUMPI DUP1 PUSH4 0xAC4AFA38 EQ PUSH2 0x1A0 JUMPI DUP1 PUSH4 0xC0B8ACAC EQ PUSH2 0x1B3 JUMPI DUP1 PUSH4 0xC0DF884C EQ PUSH2 0x1DA JUMPI DUP1 PUSH4 0xC1A287E2 EQ PUSH2 0x201 JUMPI DUP1 PUSH4 0xE6A43905 EQ PUSH2 0x20B JUMPI DUP1 PUSH4 0xEFDE4E64 EQ PUSH2 0x23C JUMPI PUSH1 0x0 DUP1 REVERT JUMPDEST DUP1 PUSH4 0x68BCD8D EQ PUSH2 0xB9 JUMPI DUP1 PUSH4 0xD43E80B EQ PUSH2 0x10F JUMPI DUP1 PUSH4 0x6B600D1C EQ PUSH2 0x13D JUMPI DUP1 PUSH4 0x77185075 EQ PUSH2 0x168 JUMPI DUP1 PUSH4 0x9D76AA76 EQ PUSH2 0x17D JUMPI DUP1 PUSH4 0xA40E56B3 EQ PUSH2 0x18D JUMPI JUMPDEST PUSH1 0x0 DUP1 REVERT JUMPDEST PUSH2 0xCC PUSH2 0xC7 CALLDATASIZE PUSH1 0x4 PUSH2 0xD79 JUMP JUMPDEST PUSH2 0x244 JUMP JUMPDEST PUSH1 0x40 DUP1 MLOAD PUSH1 0x1 PUSH1 0x1 PUSH1 0xA0 SHL SUB SWAP8 DUP9 AND DUP2 MSTORE SWAP6 DUP8 AND PUSH1 0x20 DUP8 ADD MSTORE SWAP4 SWAP1 SWAP6 AND SWAP3 DUP5 ADD SWAP3 SWAP1 SWAP3 MSTORE PUSH1 0x60 DUP4 ADD MSTORE PUSH1 0x80 DUP3 ADD MSTORE SWAP1 ISZERO ISZERO PUSH1 0xA0 DUP3 ADD MSTORE PUSH1 0xC0 ADD JUMPDEST PUSH1 0x40 MLOAD DUP1 SWAP2 SUB SWAP1 RETURN JUMPDEST PUSH2 0x12F PUSH2 0x11D CALLDATASIZE PUSH1 0x4 PUSH2 0xDAE JUMP JUMPDEST PUSH1 0x2 PUSH1 0x20 MSTORE PUSH1 0x0 SWAP1 DUP2 MSTORE PUSH1 0x40 SWAP1 KECCAK256 SLOAD DUP2 JUMP JUMPDEST PUSH1 0x40 MLOAD SWAP1 DUP2 MSTORE PUSH1 0x20 ADD PUSH2 0x106 JUMP JUMPDEST PUSH2 0x150 PUSH2 0x14B CALLDATASIZE PUSH1 0x4 PUSH2 0xDD0 JUMP JUMPDEST PUSH2 0x303 JUMP JUMPDEST PUSH1 0x40 MLOAD PUSH1 0x1 PUSH1 0x1 PUSH1 0xA0 SHL SUB SWAP1 SWAP2 AND DUP2 MSTORE PUSH1 0x20 ADD PUSH2 0x106 JUMP JUMPDEST PUSH2 0x17B PUSH2 0x176 CALLDATASIZE PUSH1 0x4 PUSH2 0xDAE JUMP JUMPDEST PUSH2 0x6F1 JUMP JUMPDEST STOP JUMPDEST PUSH2 0x12F PUSH9 0xAD78EBC5AC6200000 DUP2 JUMP JUMPDEST PUSH2 0x17B PUSH2 0x19B CALLDATASIZE PUSH1 0x4 PUSH2 0xE0C JUMP JUMPDEST PUSH2 0x912 JUMP JUMPDEST PUSH2 0xCC PUSH2 0x1AE CALLDATASIZE PUSH1 0x4 PUSH2 0xD79 JUMP JUMPDEST PUSH2 0x990 JUMP JUMPDEST PUSH2 0x150 PUSH32 0x0 DUP2 JUMP JUMPDEST PUSH2 0x150 PUSH32 0x0 DUP2 JUMP JUMPDEST PUSH2 0x12F PUSH3 0x2A300 DUP2 JUMP JUMPDEST PUSH2 0x150 PUSH2 0x219 CALLDATASIZE PUSH1 0x4 PUSH2 0xE36 JUMP JUMPDEST PUSH1 0x0 PUSH1 0x20 DUP2 DUP2 MSTORE SWAP3 DUP2 MSTORE PUSH1 0x40 DUP1 DUP3 KECCAK256 SWAP1 SWAP4 MSTORE SWAP1 DUP2 MSTORE KECCAK256 SLOAD PUSH1 0x1 PUSH1 0x1 PUSH1 0xA0 SHL SUB AND DUP2 JUMP JUMPDEST PUSH1 0x1 SLOAD PUSH2 0x12F JUMP JUMPDEST PUSH1 0x0 DUP1 PUSH1 0x0 DUP1 PUSH1 0x0 DUP1 PUSH1 0x1 DUP1 SLOAD SWAP1 POP DUP8 LT PUSH2 0x29B JUMPI PUSH1 0x40 MLOAD PUSH3 0x461BCD PUSH1 0xE5 SHL DUP2 MSTORE PUSH1 0x20 PUSH1 0x4 DUP3 ADD MSTORE PUSH1 0x12 PUSH1 0x24 DUP3 ADD MSTORE PUSH18 0x494E4445585F4F55545F4F465F52414E4745 PUSH1 0x70 SHL PUSH1 0x44 DUP3 ADD MSTORE PUSH1 0x64 ADD JUMPDEST PUSH1 0x40 MLOAD DUP1 SWAP2 SUB SWAP1 REVERT JUMPDEST PUSH1 0x0 PUSH1 0x1 DUP9 DUP2 SLOAD DUP2 LT PUSH2 0x2B0 JUMPI PUSH2 0x2B0 PUSH2 0xE69 JUMP JUMPDEST PUSH1 0x0 SWAP2 DUP3 MSTORE PUSH1 0x20 SWAP1 SWAP2 KECCAK256 PUSH1 0x6 SWAP1 SWAP2 MUL ADD DUP1 SLOAD PUSH1 0x1 DUP3 ADD SLOAD PUSH1 0x2 DUP4 ADD SLOAD PUSH1 0x3 DUP5 ADD SLOAD PUSH1 0x4 DUP6 ADD SLOAD PUSH1 0x5 SWAP1 SWAP6 ADD SLOAD PUSH1 0x1 PUSH1 0x1 PUSH1 0xA0 SHL SUB SWAP5 DUP6 AND SWAP15 SWAP4 DUP6 AND SWAP14 POP SWAP4 SWAP1 SWAP2 AND SWAP11 POP SWAP9 POP SWAP2 SWAP7 POP PUSH1 0xFF AND SWAP5 POP SWAP3 POP POP POP JUMP JUMPDEST PUSH1 0x0 DUP3 PUSH1 0x1 PUSH1 0x1 PUSH1 0xA0 SHL SUB AND DUP5 PUSH1 0x1 PUSH1 0x1 PUSH1 0xA0 SHL SUB AND EQ ISZERO PUSH2 0x35D JUMPI PUSH1 0x40 MLOAD PUSH3 0x461BCD PUSH1 0xE5 SHL DUP2 MSTORE PUSH1 0x20 PUSH1 0x4 DUP3 ADD MSTORE PUSH1 0x13 PUSH1 0x24 DUP3 ADD MSTORE PUSH19 0x4944454E544943414C5F414444524553534553 PUSH1 0x68 SHL PUSH1 0x44 DUP3 ADD MSTORE PUSH1 0x64 ADD PUSH2 0x292 JUMP JUMPDEST PUSH1 0x0 DUP1 DUP5 PUSH1 0x1 PUSH1 0x1 PUSH1 0xA0 SHL SUB AND DUP7 PUSH1 0x1 PUSH1 0x1 PUSH1 0xA0 SHL SUB AND LT PUSH2 0x380 JUMPI DUP5 DUP7 PUSH2 0x383 JUMP JUMPDEST DUP6 DUP6 JUMPDEST SWAP1 SWAP3 POP SWAP1 POP PUSH1 0x1 PUSH1 0x1 PUSH1 0xA0 SHL SUB DUP3 AND PUSH2 0x3CD JUMPI PUSH1 0x40 MLOAD PUSH3 0x461BCD PUSH1 0xE5 SHL DUP2 MSTORE PUSH1 0x20 PUSH1 0x4 DUP3 ADD MSTORE PUSH1 0xC PUSH1 0x24 DUP3 ADD MSTORE PUSH12 0x5A45524F5F41444452455353 PUSH1 0xA0 SHL PUSH1 0x44 DUP3 ADD MSTORE PUSH1 0x64 ADD PUSH2 0x292 JUMP JUMPDEST PUSH1 0x1 PUSH1 0x1 PUSH1 0xA0 SHL SUB DUP3 DUP2 AND PUSH1 0x0 SWAP1 DUP2 MSTORE PUSH1 0x20 DUP2 DUP2 MSTORE PUSH1 0x40 DUP1 DUP4 KECCAK256 DUP6 DUP6 AND DUP5 MSTORE SWAP1 SWAP2 MSTORE SWAP1 KECCAK256 SLOAD AND ISZERO PUSH2 0x42E JUMPI PUSH1 0x40 MLOAD PUSH3 0x461BCD PUSH1 0xE5 SHL DUP2 MSTORE PUSH1 0x20 PUSH1 0x4 DUP3 ADD MSTORE PUSH1 0xB PUSH1 0x24 DUP3 ADD MSTORE PUSH11 0x504149525F455849535453 PUSH1 0xA8 SHL PUSH1 0x44 DUP3 ADD MSTORE PUSH1 0x64 ADD PUSH2 0x292 JUMP JUMPDEST PUSH1 0x40 DUP1 MLOAD TIMESTAMP PUSH1 0x20 DUP1 DUP4 ADD DUP3 SWAP1 MSTORE PUSH1 0x60 DUP7 DUP2 SHL PUSH12 0xFFFFFFFFFFFFFFFFFFFFFFFF NOT SWAP1 DUP2 AND DUP6 DUP8 ADD MSTORE DUP7 DUP3 SHL DUP2 AND PUSH1 0x54 DUP7 ADD MSTORE CALLER SWAP1 SWAP2 SHL AND PUSH1 0x68 DUP5 ADD MSTORE DUP4 MLOAD PUSH1 0x5C DUP2 DUP6 SUB ADD DUP2 MSTORE PUSH1 0x7C DUP5 ADD DUP1 DUP7 MSTORE DUP2 MLOAD SWAP2 DUP4 ADD SWAP2 SWAP1 SWAP2 KECCAK256 PUSH1 0x1 PUSH1 0x1 PUSH1 0xA0 SHL SUB DUP1 DUP10 AND PUSH1 0x0 DUP2 DUP2 MSTORE DUP1 DUP7 MSTORE DUP9 DUP2 KECCAK256 DUP4 DUP12 AND DUP1 DUP4 MSTORE SWAP1 DUP8 MSTORE DUP10 DUP3 KECCAK256 DUP1 SLOAD DUP6 DUP8 AND PUSH1 0x1 PUSH1 0x1 PUSH1 0xA0 SHL SUB NOT SWAP2 DUP3 AND DUP2 OR SWAP1 SWAP3 SSTORE DUP4 DUP10 MSTORE DUP12 DUP5 KECCAK256 DUP6 DUP6 MSTORE DUP10 MSTORE DUP12 DUP5 KECCAK256 DUP1 SLOAD DUP3 AND DUP4 OR SWAP1 SSTORE PUSH2 0x13C DUP12 ADD DUP13 MSTORE PUSH1 0xFC DUP12 ADD DUP5 DUP2 MSTORE SWAP5 DUP9 MSTORE PUSH1 0x9C DUP12 ADD SWAP3 DUP4 MSTORE PUSH1 0xBC DUP12 ADD DUP3 DUP2 MSTORE PUSH1 0xDC DUP13 ADD SWAP11 DUP12 MSTORE PUSH1 0x1 PUSH2 0x11C SWAP1 SWAP13 ADD DUP13 DUP2 MSTORE DUP13 SLOAD DUP1 DUP15 ADD DUP15 SSTORE DUP14 DUP8 MSTORE DUP11 MLOAD PUSH32 0xB10E2D527612073B26EECDFD717E6A320CF44B4AFAC2B0732D9FCBE2B7FA0CF6 PUSH1 0x6 SWAP1 SWAP3 MUL SWAP2 DUP3 ADD DUP1 SLOAD DUP7 AND SWAP2 DUP12 AND SWAP2 SWAP1 SWAP2 OR SWAP1 SSTORE SWAP5 MLOAD PUSH32 0xB10E2D527612073B26EECDFD717E6A320CF44B4AFAC2B0732D9FCBE2B7FA0CF7 DUP7 ADD DUP1 SLOAD DUP6 AND SWAP2 DUP11 AND SWAP2 SWAP1 SWAP2 OR SWAP1 SSTORE SWAP1 MLOAD PUSH32 0xB10E2D527612073B26EECDFD717E6A320CF44B4AFAC2B0732D9FCBE2B7FA0CF8 DUP6 ADD DUP1 SLOAD SWAP1 SWAP4 AND SWAP8 AND SWAP7 SWAP1 SWAP7 OR SWAP1 SSTORE SWAP8 MLOAD PUSH32 0xB10E2D527612073B26EECDFD717E6A320CF44B4AFAC2B0732D9FCBE2B7FA0CF9 DUP3 ADD SSTORE SWAP2 MLOAD PUSH32 0xB10E2D527612073B26EECDFD717E6A320CF44B4AFAC2B0732D9FCBE2B7FA0CFA DUP4 ADD SSTORE SWAP2 MLOAD PUSH32 0xB10E2D527612073B26EECDFD717E6A320CF44B4AFAC2B0732D9FCBE2B7FA0CFB SWAP1 SWAP2 ADD DUP1 SLOAD PUSH1 0xFF NOT AND SWAP2 ISZERO ISZERO SWAP2 SWAP1 SWAP2 OR SWAP1 SSTORE SWAP5 SLOAD SWAP4 DUP6 MSTORE PUSH1 0x2 SWAP1 SWAP3 MSTORE SWAP4 SWAP1 SWAP3 KECCAK256 SSTORE SWAP4 POP DUP5 ISZERO PUSH2 0x64A JUMPI PUSH2 0x64A DUP5 DUP7 PUSH2 0x9E9 JUMP JUMPDEST PUSH2 0x653 DUP4 PUSH2 0xC0E JUMP JUMPDEST DUP1 PUSH2 0x662 JUMPI POP PUSH2 0x662 DUP3 PUSH2 0xC0E JUMP JUMPDEST ISZERO PUSH2 0x677 JUMPI PUSH2 0x672 DUP5 PUSH1 0x1 PUSH2 0xCB2 JUMP JUMPDEST PUSH2 0x69D JUMP JUMPDEST PUSH9 0xAD78EBC5AC6200000 DUP6 LT PUSH2 0x692 JUMPI PUSH2 0x672 DUP5 PUSH1 0x1 PUSH2 0xCB2 JUMP JUMPDEST PUSH2 0x69D DUP5 PUSH1 0x1 PUSH2 0xCB2 JUMP JUMPDEST PUSH1 0x40 DUP1 MLOAD PUSH1 0x1 PUSH1 0x1 PUSH1 0xA0 SHL SUB DUP7 DUP2 AND DUP3 MSTORE TIMESTAMP PUSH1 0x20 DUP4 ADD MSTORE DUP1 DUP6 AND SWAP3 SWAP1 DUP7 AND SWAP2 PUSH32 0xD3648BD0F6BA80134A33BA9275AC585D9D315F0AD8355CDDEFDE31AFA28D0E9 SWAP2 ADD PUSH1 0x40 MLOAD DUP1 SWAP2 SUB SWAP1 LOG3 POP POP POP SWAP4 SWAP3 POP POP POP JUMP JUMPDEST PUSH1 0x1 PUSH1 0x1 PUSH1 0xA0 SHL SUB DUP2 AND PUSH1 0x0 SWAP1 DUP2 MSTORE PUSH1 0x2 PUSH1 0x20 MSTORE PUSH1 0x40 SWAP1 KECCAK256 SLOAD DUP1 PUSH2 0x727 JUMPI PUSH1 0x40 MLOAD PUSH3 0x461BCD PUSH1 0xE5 SHL DUP2 MSTORE PUSH1 0x4 ADD PUSH2 0x292 SWAP1 PUSH2 0xE7F JUMP JUMPDEST PUSH1 0x0 PUSH1 0x1 PUSH2 0x735 DUP2 DUP5 PUSH2 0xEBD JUMP JUMPDEST DUP2 SLOAD DUP2 LT PUSH2 0x745 JUMPI PUSH2 0x745 PUSH2 0xE69 JUMP JUMPDEST PUSH1 0x0 SWAP2 DUP3 MSTORE PUSH1 0x20 SWAP1 SWAP2 KECCAK256 PUSH1 0x6 SWAP1 SWAP2 MUL ADD DUP1 SLOAD SWAP1 SWAP2 POP PUSH2 0x76C SWAP1 PUSH1 0x1 PUSH1 0x1 PUSH1 0xA0 SHL SUB AND PUSH2 0xC0E JUMP JUMPDEST DUP1 PUSH2 0x789 JUMPI POP PUSH1 0x1 DUP2 ADD SLOAD PUSH2 0x789 SWAP1 PUSH1 0x1 PUSH1 0x1 PUSH1 0xA0 SHL SUB AND PUSH2 0xC0E JUMP JUMPDEST DUP1 PUSH2 0x7A6 JUMPI POP PUSH1 0x2 DUP2 ADD SLOAD PUSH2 0x7A6 SWAP1 PUSH1 0x1 PUSH1 0x1 PUSH1 0xA0 SHL SUB AND PUSH2 0xC0E JUMP JUMPDEST ISZERO PUSH2 0x7C7 JUMPI PUSH1 0x5 DUP2 ADD SLOAD PUSH1 0xFF AND PUSH2 0x7C2 JUMPI PUSH2 0x7C2 DUP4 PUSH1 0x1 PUSH2 0xCB2 JUMP JUMPDEST POP POP POP JUMP JUMPDEST PUSH9 0xAD78EBC5AC6200000 DUP2 PUSH1 0x4 ADD SLOAD LT PUSH2 0x83E JUMPI PUSH1 0x5 DUP2 ADD SLOAD PUSH1 0xFF AND PUSH2 0x7C2 JUMPI PUSH2 0x7F2 DUP4 PUSH1 0x1 PUSH2 0xCB2 JUMP JUMPDEST DUP3 PUSH1 0x1 PUSH1 0x1 PUSH1 0xA0 SHL SUB AND PUSH32 0x80413431CDE25E9DE215C5A497B067986B40E2A1F310CC0275C3739CA12549B7 DUP3 PUSH1 0x4 ADD SLOAD PUSH1 0x40 MLOAD PUSH2 0x831 SWAP2 DUP2 MSTORE PUSH1 0x20 ADD SWAP1 JUMP JUMPDEST PUSH1 0x40 MLOAD DUP1 SWAP2 SUB SWAP1 LOG2 POP POP POP JUMP JUMPDEST PUSH3 0x2A300 DUP2 PUSH1 0x3 ADD SLOAD PUSH2 0x851 SWAP2 SWAP1 PUSH2 0xED4 JUMP JUMPDEST TIMESTAMP GT PUSH2 0x86E JUMPI PUSH1 0x5 DUP2 ADD SLOAD PUSH1 0xFF AND PUSH2 0x7C2 JUMPI PUSH2 0x7C2 DUP4 PUSH1 0x1 PUSH2 0xCB2 JUMP JUMPDEST PUSH1 0x5 DUP2 ADD SLOAD PUSH1 0xFF AND ISZERO PUSH2 0x7C2 JUMPI PUSH1 0x5 DUP2 ADD DUP1 SLOAD PUSH1 0xFF NOT AND SWAP1 SSTORE PUSH1 0x4 DUP2 ADD SLOAD PUSH1 0x40 MLOAD SWAP1 DUP2 MSTORE PUSH1 0x1 PUSH1 0x1 PUSH1 0xA0 SHL SUB DUP5 AND SWAP1 PUSH32 0x46380AAA33D02B5847842B079157B4B3C5C49DF29248C7FC4B95C819E8C09A1F SWAP1 PUSH1 0x20 ADD PUSH1 0x40 MLOAD DUP1 SWAP2 SUB SWAP1 LOG2 PUSH1 0x4 DUP2 ADD SLOAD PUSH1 0x40 DUP1 MLOAD PUSH1 0x0 DUP2 MSTORE PUSH1 0x20 DUP2 ADD SWAP3 SWAP1 SWAP3 MSTORE PUSH1 0x1 PUSH1 0x1 PUSH1 0xA0 SHL SUB DUP6 AND SWAP2 PUSH32 0x83D57C8ED698C66D4C7C4AA93638D9F755BEE04E30EE5CAB028CAA074CF77C7 SWAP2 ADD PUSH2 0x831 JUMP JUMPDEST PUSH1 0x0 DUP2 GT PUSH2 0x950 JUMPI PUSH1 0x40 MLOAD PUSH3 0x461BCD PUSH1 0xE5 SHL DUP2 MSTORE PUSH1 0x20 PUSH1 0x4 DUP3 ADD MSTORE PUSH1 0xB PUSH1 0x24 DUP3 ADD MSTORE PUSH11 0x16915493D7D05353D55395 PUSH1 0xAA SHL PUSH1 0x44 DUP3 ADD MSTORE PUSH1 0x64 ADD PUSH2 0x292 JUMP JUMPDEST PUSH1 0x1 PUSH1 0x1 PUSH1 0xA0 SHL SUB DUP3 AND PUSH1 0x0 SWAP1 DUP2 MSTORE PUSH1 0x2 PUSH1 0x20 MSTORE PUSH1 0x40 SWAP1 KECCAK256 SLOAD DUP1 PUSH2 0x986 JUMPI PUSH1 0x40 MLOAD PUSH3 0x461BCD PUSH1 0xE5 SHL DUP2 MSTORE PUSH1 0x4 ADD PUSH2 0x292 SWAP1 PUSH2 0xE7F JUMP JUMPDEST PUSH2 0x7C2 DUP4 DUP4 PUSH2 0x9E9 JUMP JUMPDEST PUSH1 0x1 DUP2 DUP2 SLOAD DUP2 LT PUSH2 0x9A0 JUMPI PUSH1 0x0 DUP1 REVERT JUMPDEST PUSH1 0x0 SWAP2 DUP3 MSTORE PUSH1 0x20 SWAP1 SWAP2 KECCAK256 PUSH1 0x6 SWAP1 SWAP2 MUL ADD DUP1 SLOAD PUSH1 0x1 DUP3 ADD SLOAD PUSH1 0x2 DUP4 ADD SLOAD PUSH1 0x3 DUP5 ADD SLOAD PUSH1 0x4 DUP6 ADD SLOAD PUSH1 0x5 SWAP1 SWAP6 ADD SLOAD PUSH1 0x1 PUSH1 0x1 PUSH1 0xA0 SHL SUB SWAP5 DUP6 AND SWAP7 POP SWAP3 DUP5 AND SWAP5 SWAP2 SWAP1 SWAP4 AND SWAP3 SWAP2 PUSH1 0xFF AND DUP7 JUMP JUMPDEST PUSH1 0x40 MLOAD PUSH4 0x23B872DD PUSH1 0xE0 SHL DUP2 MSTORE CALLER PUSH1 0x4 DUP3 ADD MSTORE ADDRESS PUSH1 0x24 DUP3 ADD MSTORE PUSH1 0x44 DUP2 ADD DUP3 SWAP1 MSTORE PUSH32 0x0 SWAP1 PUSH1 0x1 PUSH1 0x1 PUSH1 0xA0 SHL SUB DUP3 AND SWAP1 PUSH4 0x23B872DD SWAP1 PUSH1 0x64 ADD PUSH1 0x20 PUSH1 0x40 MLOAD DUP1 DUP4 SUB DUP2 PUSH1 0x0 DUP8 DUP1 EXTCODESIZE ISZERO DUP1 ISZERO PUSH2 0xA59 JUMPI PUSH1 0x0 DUP1 REVERT JUMPDEST POP GAS CALL ISZERO DUP1 ISZERO PUSH2 0xA6D JUMPI RETURNDATASIZE PUSH1 0x0 DUP1 RETURNDATACOPY RETURNDATASIZE PUSH1 0x0 REVERT JUMPDEST POP POP POP POP PUSH1 0x40 MLOAD RETURNDATASIZE PUSH1 0x1F NOT PUSH1 0x1F DUP3 ADD AND DUP3 ADD DUP1 PUSH1 0x40 MSTORE POP DUP2 ADD SWAP1 PUSH2 0xA91 SWAP2 SWAP1 PUSH2 0xEEC JUMP JUMPDEST PUSH2 0xAD4 JUMPI PUSH1 0x40 MLOAD PUSH3 0x461BCD PUSH1 0xE5 SHL DUP2 MSTORE PUSH1 0x20 PUSH1 0x4 DUP3 ADD MSTORE PUSH1 0x14 PUSH1 0x24 DUP3 ADD MSTORE PUSH20 0x14D51050931157D514905394D1915497D1905253 PUSH1 0x62 SHL PUSH1 0x44 DUP3 ADD MSTORE PUSH1 0x64 ADD PUSH2 0x292 JUMP JUMPDEST PUSH1 0x1 PUSH1 0x1 PUSH1 0xA0 SHL SUB DUP4 AND PUSH1 0x0 SWAP1 DUP2 MSTORE PUSH1 0x2 PUSH1 0x20 MSTORE PUSH1 0x40 SWAP1 KECCAK256 SLOAD DUP1 PUSH2 0xB0A JUMPI PUSH1 0x40 MLOAD PUSH3 0x461BCD PUSH1 0xE5 SHL DUP2 MSTORE PUSH1 0x4 ADD PUSH2 0x292 SWAP1 PUSH2 0xE7F JUMP JUMPDEST PUSH1 0x0 PUSH1 0x1 PUSH2 0xB18 DUP2 DUP5 PUSH2 0xEBD JUMP JUMPDEST DUP2 SLOAD DUP2 LT PUSH2 0xB28 JUMPI PUSH2 0xB28 PUSH2 0xE69 JUMP JUMPDEST SWAP1 PUSH1 0x0 MSTORE PUSH1 0x20 PUSH1 0x0 KECCAK256 SWAP1 PUSH1 0x6 MUL ADD SWAP1 POP DUP4 DUP2 PUSH1 0x4 ADD PUSH1 0x0 DUP3 DUP3 SLOAD PUSH2 0xB4C SWAP2 SWAP1 PUSH2 0xED4 JUMP JUMPDEST SWAP1 SWAP2 SSTORE POP POP PUSH1 0x4 DUP2 ADD SLOAD PUSH1 0x40 MLOAD PUSH1 0x1 PUSH1 0x1 PUSH1 0xA0 SHL SUB DUP8 AND SWAP2 PUSH32 0x359ACA8D05C44E10F6A3CFF7793D6AA532074FAE4219F8DE6763BC4060BCC723 SWAP2 PUSH2 0xB98 SWAP2 DUP9 DUP3 MSTORE PUSH1 0x20 DUP3 ADD MSTORE PUSH1 0x40 ADD SWAP1 JUMP JUMPDEST PUSH1 0x40 MLOAD DUP1 SWAP2 SUB SWAP1 LOG2 PUSH9 0xAD78EBC5AC6200000 DUP2 PUSH1 0x4 ADD SLOAD LT PUSH2 0xC07 JUMPI PUSH2 0xBBF DUP6 PUSH1 0x1 PUSH2 0xCB2 JUMP JUMPDEST DUP5 PUSH1 0x1 PUSH1 0x1 PUSH1 0xA0 SHL SUB AND PUSH32 0x80413431CDE25E9DE215C5A497B067986B40E2A1F310CC0275C3739CA12549B7 DUP3 PUSH1 0x4 ADD SLOAD PUSH1 0x40 MLOAD PUSH2 0xBFE SWAP2 DUP2 MSTORE PUSH1 0x20 ADD SWAP1 JUMP JUMPDEST PUSH1 0x40 MLOAD DUP1 SWAP2 SUB SWAP1 LOG2 JUMPDEST POP POP POP POP POP JUMP JUMPDEST PUSH1 0x0 PUSH1 0x1 PUSH1 0x1 PUSH1 0xA0 SHL SUB DUP3 AND PUSH2 0xC26 JUMPI POP PUSH1 0x0 SWAP2 SWAP1 POP JUMP JUMPDEST PUSH32 0x0 PUSH1 0x1 PUSH1 0x1 PUSH1 0xA0 SHL SUB AND DUP3 PUSH1 0x1 PUSH1 0x1 PUSH1 0xA0 SHL SUB AND EQ ISZERO PUSH2 0xC68 JUMPI POP PUSH1 0x1 SWAP2 SWAP1 POP JUMP JUMPDEST PUSH32 0x0 PUSH1 0x1 PUSH1 0x1 PUSH1 0xA0 SHL SUB AND DUP3 PUSH1 0x1 PUSH1 0x1 PUSH1 0xA0 SHL SUB AND EQ ISZERO PUSH2 0xCAA JUMPI POP PUSH1 0x1 SWAP2 SWAP1 POP JUMP JUMPDEST POP PUSH1 0x0 SWAP2 SWAP1 POP JUMP JUMPDEST PUSH1 0x1 PUSH1 0x1 PUSH1 0xA0 SHL SUB DUP3 AND PUSH1 0x0 SWAP1 DUP2 MSTORE PUSH1 0x2 PUSH1 0x20 MSTORE PUSH1 0x40 SWAP1 KECCAK256 SLOAD DUP1 PUSH2 0xCE8 JUMPI PUSH1 0x40 MLOAD PUSH3 0x461BCD PUSH1 0xE5 SHL DUP2 MSTORE PUSH1 0x4 ADD PUSH2 0x292 SWAP1 PUSH2 0xE7F JUMP JUMPDEST PUSH1 0x0 PUSH1 0x1 PUSH2 0xCF6 DUP2 DUP5 PUSH2 0xEBD JUMP JUMPDEST DUP2 SLOAD DUP2 LT PUSH2 0xD06 JUMPI PUSH2 0xD06 PUSH2 0xE69 JUMP JUMPDEST PUSH1 0x0 SWAP2 DUP3 MSTORE PUSH1 0x20 SWAP2 DUP3 SWAP1 KECCAK256 PUSH1 0x6 SWAP1 SWAP2 MUL ADD PUSH1 0x5 DUP2 ADD DUP1 SLOAD PUSH1 0xFF NOT AND DUP7 ISZERO ISZERO SWAP1 DUP2 OR SWAP1 SWAP2 SSTORE PUSH1 0x4 DUP3 ADD SLOAD PUSH1 0x40 DUP1 MLOAD SWAP3 DUP4 MSTORE SWAP4 DUP3 ADD MSTORE SWAP1 SWAP3 POP PUSH1 0x1 PUSH1 0x1 PUSH1 0xA0 SHL SUB DUP7 AND SWAP2 PUSH32 0x83D57C8ED698C66D4C7C4AA93638D9F755BEE04E30EE5CAB028CAA074CF77C7 SWAP2 ADD PUSH1 0x40 MLOAD DUP1 SWAP2 SUB SWAP1 LOG2 POP POP POP POP JUMP JUMPDEST PUSH1 0x0 PUSH1 0x20 DUP3 DUP5 SUB SLT ISZERO PUSH2 0xD8B JUMPI PUSH1 0x0 DUP1 REVERT JUMPDEST POP CALLDATALOAD SWAP2 SWAP1 POP JUMP JUMPDEST DUP1 CALLDATALOAD PUSH1 0x1 PUSH1 0x1 PUSH1 0xA0 SHL SUB DUP2 AND DUP2 EQ PUSH2 0xDA9 JUMPI PUSH1 0x0 DUP1 REVERT JUMPDEST SWAP2 SWAP1 POP JUMP JUMPDEST PUSH1 0x0 PUSH1 0x20 DUP3 DUP5 SUB SLT ISZERO PUSH2 0xDC0 JUMPI PUSH1 0x0 DUP1 REVERT JUMPDEST PUSH2 0xDC9 DUP3 PUSH2 0xD92 JUMP JUMPDEST SWAP4 SWAP3 POP POP POP JUMP JUMPDEST PUSH1 0x0 DUP1 PUSH1 0x0 PUSH1 0x60 DUP5 DUP7 SUB SLT ISZERO PUSH2 0xDE5 JUMPI PUSH1 0x0 DUP1 REVERT JUMPDEST PUSH2 0xDEE DUP5 PUSH2 0xD92 JUMP JUMPDEST SWAP3 POP PUSH2 0xDFC PUSH1 0x20 DUP6 ADD PUSH2 0xD92 JUMP JUMPDEST SWAP2 POP PUSH1 0x40 DUP5 ADD CALLDATALOAD SWAP1 POP SWAP3 POP SWAP3 POP SWAP3 JUMP JUMPDEST PUSH1 0x0 DUP1 PUSH1 0x40 DUP4 DUP6 SUB SLT ISZERO PUSH2 0xE1F JUMPI PUSH1 0x0 DUP1 REVERT JUMPDEST PUSH2 0xE28 DUP4 PUSH2 0xD92 JUMP JUMPDEST SWAP5 PUSH1 0x20 SWAP4 SWAP1 SWAP4 ADD CALLDATALOAD SWAP4 POP POP POP JUMP JUMPDEST PUSH1 0x0 DUP1 PUSH1 0x40 DUP4 DUP6 SUB SLT ISZERO PUSH2 0xE49 JUMPI PUSH1 0x0 DUP1 REVERT JUMPDEST PUSH2 0xE52 DUP4 PUSH2 0xD92 JUMP JUMPDEST SWAP2 POP PUSH2 0xE60 PUSH1 0x20 DUP5 ADD PUSH2 0xD92 JUMP JUMPDEST SWAP1 POP SWAP3 POP SWAP3 SWAP1 POP JUMP JUMPDEST PUSH4 0x4E487B71 PUSH1 0xE0 SHL PUSH1 0x0 MSTORE PUSH1 0x32 PUSH1 0x4 MSTORE PUSH1 0x24 PUSH1 0x0 REVERT JUMPDEST PUSH1 0x20 DUP1 DUP3 MSTORE PUSH1 0xE SWAP1 DUP3 ADD MSTORE PUSH14 0x1410525497D393D517D193D55391 PUSH1 0x92 SHL PUSH1 0x40 DUP3 ADD MSTORE PUSH1 0x60 ADD SWAP1 JUMP JUMPDEST PUSH4 0x4E487B71 PUSH1 0xE0 SHL PUSH1 0x0 MSTORE PUSH1 0x11 PUSH1 0x4 MSTORE PUSH1 0x24 PUSH1 0x0 REVERT JUMPDEST PUSH1 0x0 DUP3 DUP3 LT ISZERO PUSH2 0xECF JUMPI PUSH2 0xECF PUSH2 0xEA7 JUMP JUMPDEST POP SUB SWAP1 JUMP JUMPDEST PUSH1 0x0 DUP3 NOT DUP3 GT ISZERO PUSH2 0xEE7 JUMPI PUSH2 0xEE7 PUSH2 0xEA7 JUMP JUMPDEST POP ADD SWAP1 JUMP JUMPDEST PUSH1 0x0 PUSH1 0x20 DUP3 DUP5 SUB SLT ISZERO PUSH2 0xEFE JUMPI PUSH1 0x0 DUP1 REVERT JUMPDEST DUP2 MLOAD DUP1 ISZERO ISZERO DUP2 EQ PUSH2 0xDC9 JUMPI PUSH1 0x0 DUP1 REVERT INVALID LOG2 PUSH5 0x6970667358 0x22 SLT KECCAK256 PUSH3 0x7B1276 0x23 0xD9 0xC8 DUP4 0xAB SHL 0xBE CALL 0x5F PUSH24 0x40EC1E68AB435DB808DB0850B12BC5E5E45064736F6C6343 STOP ADDMOD MULMOD STOP CALLER "},"methodIdentifiers":{"FOUNDER_TOKEN()":"c0b8acac","GRACE_PERIOD()":"c1a287e2","MIN_STABLE()":"9d76aa76","REFERENCE_STABLE()":"c0df884c","allPoolsLength()":"efde4e64","createPair(address,address,uint256)":"6b600d1c","depositStableToPair(address,uint256)":"a40e56b3","enforceVisibilityForPair(address)":"77185075","getPair(address,address)":"e6a43905","getPool(uint256)":"068bcd8d","poolIndexByPair(address)":"0d43e80b","pools(uint256)":"ac4afa38"}}}}}