{
  "_format": "hh-sol-artifact-1",
  "contractName": "AMMFactory",
  "sourceName": "contracts/AMMRouter.sol",
  "abi": [
    {
      "inputs": [
        {
          "internalType": "address",
          "name": "_referenceStable",
          "type": "address"
        },
        {
          "internalType": "address",
          "name": "_founderToken",
          "type": "address"
        }
      ],
      "stateMutability": "nonpayable",
      "type": "constructor"
    },
    {
      "anonymous": false,
      "inputs": [
        {
          "indexed": true,
          "internalType": "address",
          "name": "token0",
          "type": "address"
        },
        {
          "indexed": true,
          "internalType": "address",
          "name": "token1",
          "type": "address"
        },
        {
          "indexed": false,
          "internalType": "address",
          "name": "pairAddress",
          "type": "address"
        },
        {
          "indexed": false,
          "internalType": "uint256",
          "name": "creationTime",
          "type": "uint256"
        }
      ],
      "name": "PairCreated",
      "type": "event"
    },
    {
      "anonymous": false,
      "inputs": [
        {
          "indexed": true,
          "internalType": "address",
          "name": "pairAddress",
          "type": "address"
        },
        {
          "indexed": false,
          "internalType": "uint256",
          "name": "stableAmount",
          "type": "uint256"
        }
      ],
      "name": "PoolHidden",
      "type": "event"
    },
    {
      "anonymous": false,
      "inputs": [
        {
          "indexed": true,
          "internalType": "address",
          "name": "pairAddress",
          "type": "address"
        },
        {
          "indexed": false,
          "internalType": "uint256",
          "name": "stableAmount",
          "type": "uint256"
        }
      ],
      "name": "PoolShown",
      "type": "event"
    },
    {
      "anonymous": false,
      "inputs": [
        {
          "indexed": true,
          "internalType": "address",
          "name": "pairAddress",
          "type": "address"
        },
        {
          "indexed": false,
          "internalType": "uint256",
          "name": "amount",
          "type": "uint256"
        },
        {
          "indexed": false,
          "internalType": "uint256",
          "name": "totalStable",
          "type": "uint256"
        }
      ],
      "name": "StableDeposited",
      "type": "event"
    },
    {
      "anonymous": false,
      "inputs": [
        {
          "indexed": true,
          "internalType": "address",
          "name": "pairAddress",
          "type": "address"
        },
        {
          "indexed": false,
          "internalType": "bool",
          "name": "visible",
          "type": "bool"
        },
        {
          "indexed": false,
          "internalType": "uint256",
          "name": "stableAmount",
          "type": "uint256"
        }
      ],
      "name": "VisibilityUpdated",
      "type": "event"
    },
    {
      "inputs": [],
      "name": "FOUNDER_TOKEN",
      "outputs": [
        {
          "internalType": "address",
          "name": "",
          "type": "address"
        }
      ],
      "stateMutability": "view",
      "type": "function"
    },
    {
      "inputs": [],
      "name": "GRACE_PERIOD",
      "outputs": [
        {
          "internalType": "uint256",
          "name": "",
          "type": "uint256"
        }
      ],
      "stateMutability": "view",
      "type": "function"
    },
    {
      "inputs": [],
      "name": "MIN_STABLE",
      "outputs": [
        {
          "internalType": "uint256",
          "name": "",
          "type": "uint256"
        }
      ],
      "stateMutability": "view",
      "type": "function"
    },
    {
      "inputs": [],
      "name": "REFERENCE_STABLE",
      "outputs": [
        {
          "internalType": "address",
          "name": "",
          "type": "address"
        }
      ],
      "stateMutability": "view",
      "type": "function"
    },
    {
      "inputs": [],
      "name": "allPoolsLength",
      "outputs": [
        {
          "internalType": "uint256",
          "name": "",
          "type": "uint256"
        }
      ],
      "stateMutability": "view",
      "type": "function"
    },
    {
      "inputs": [
        {
          "internalType": "address",
          "name": "tokenA",
          "type": "address"
        },
        {
          "internalType": "address",
          "name": "tokenB",
          "type": "address"
        },
        {
          "internalType": "uint256",
          "name": "stableAmount",
          "type": "uint256"
        }
      ],
      "name": "createPair",
      "outputs": [
        {
          "internalType": "address",
          "name": "pairAddress",
          "type": "address"
        }
      ],
      "stateMutability": "nonpayable",
      "type": "function"
    },
    {
      "inputs": [
        {
          "internalType": "address",
          "name": "pairAddress",
          "type": "address"
        },
        {
          "internalType": "uint256",
          "name": "amount",
          "type": "uint256"
        }
      ],
      "name": "depositStableToPair",
      "outputs": [],
      "stateMutability": "nonpayable",
      "type": "function"
    },
    {
      "inputs": [
        {
          "internalType": "address",
          "name": "pairAddress",
          "type": "address"
        }
      ],
      "name": "enforceVisibilityForPair",
      "outputs": [],
      "stateMutability": "nonpayable",
      "type": "function"
    },
    {
      "inputs": [
        {
          "internalType": "address",
          "name": "",
          "type": "address"
        },
        {
          "internalType": "address",
          "name": "",
          "type": "address"
        }
      ],
      "name": "getPair",
      "outputs": [
        {
          "internalType": "address",
          "name": "",
          "type": "address"
        }
      ],
      "stateMutability": "view",
      "type": "function"
    },
    {
      "inputs": [
        {
          "internalType": "uint256",
          "name": "index",
          "type": "uint256"
        }
      ],
      "name": "getPool",
      "outputs": [
        {
          "internalType": "address",
          "name": "token0",
          "type": "address"
        },
        {
          "internalType": "address",
          "name": "token1",
          "type": "address"
        },
        {
          "internalType": "address",
          "name": "pairAddress",
          "type": "address"
        },
        {
          "internalType": "uint256",
          "name": "creationTime",
          "type": "uint256"
        },
        {
          "internalType": "uint256",
          "name": "stableDeposited",
          "type": "uint256"
        },
        {
          "internalType": "bool",
          "name": "visible",
          "type": "bool"
        }
      ],
      "stateMutability": "view",
      "type": "function"
    },
    {
      "inputs": [
        {
          "internalType": "address",
          "name": "",
          "type": "address"
        }
      ],
      "name": "poolIndexByPair",
      "outputs": [
        {
          "internalType": "uint256",
          "name": "",
          "type": "uint256"
        }
      ],
      "stateMutability": "view",
      "type": "function"
    },
    {
      "inputs": [
        {
          "internalType": "uint256",
          "name": "",
          "type": "uint256"
        }
      ],
      "name": "pools",
      "outputs": [
        {
          "internalType": "address",
          "name": "token0",
          "type": "address"
        },
        {
          "internalType": "address",
          "name": "token1",
          "type": "address"
        },
        {
          "internalType": "address",
          "name": "pairAddress",
          "type": "address"
        },
        {
          "internalType": "uint256",
          "name": "creationTime",
          "type": "uint256"
        },
        {
          "internalType": "uint256",
          "name": "stableDeposited",
          "type": "uint256"
        },
        {
          "internalType": "bool",
          "name": "visible",
          "type": "bool"
        }
      ],
      "stateMutability": "view",
      "type": "function"
    }
  ],
  "bytecode": "0x60c060405234801561001057600080fd5b506040516110a43803806110a483398101604081905261002f916100f3565b6001600160a01b03821661007b5760405162461bcd60e51b815260206004820152600e60248201526d5a45524f5f5245464552454e434560901b60448201526064015b60405180910390fd5b6001600160a01b0381166100c05760405162461bcd60e51b815260206004820152600c60248201526b2d22a927afa327aaa72222a960a11b6044820152606401610072565b6001600160a01b039182166080521660a052610126565b80516001600160a01b03811681146100ee57600080fd5b919050565b6000806040838503121561010657600080fd5b61010f836100d7565b915061011d602084016100d7565b90509250929050565b60805160a051610f44610160600039600081816101b80152610c280152600081816101df01528181610a0b0152610c6a0152610f446000f3fe608060405234801561001057600080fd5b50600436106100b45760003560e01c8063ac4afa3811610071578063ac4afa38146101a0578063c0b8acac146101b3578063c0df884c146101da578063c1a287e214610201578063e6a439051461020b578063efde4e641461023c57600080fd5b8063068bcd8d146100b95780630d43e80b1461010f5780636b600d1c1461013d57806377185075146101685780639d76aa761461017d578063a40e56b31461018d575b600080fd5b6100cc6100c7366004610d79565b610244565b604080516001600160a01b039788168152958716602087015293909516928401929092526060830152608082015290151560a082015260c0015b60405180910390f35b61012f61011d366004610dae565b60026020526000908152604090205481565b604051908152602001610106565b61015061014b366004610dd0565b610303565b6040516001600160a01b039091168152602001610106565b61017b610176366004610dae565b6106f1565b005b61012f680ad78ebc5ac620000081565b61017b61019b366004610e0c565b610912565b6100cc6101ae366004610d79565b610990565b6101507f000000000000000000000000000000000000000000000000000000000000000081565b6101507f000000000000000000000000000000000000000000000000000000000000000081565b61012f6202a30081565b610150610219366004610e36565b60006020818152928152604080822090935290815220546001600160a01b031681565b60015461012f565b600080600080600080600180549050871061029b5760405162461bcd60e51b8152602060048201526012602482015271494e4445585f4f55545f4f465f52414e474560701b60448201526064015b60405180910390fd5b6000600188815481106102b0576102b0610e69565b60009182526020909120600690910201805460018201546002830154600384015460048501546005909501546001600160a01b039485169e9385169d50939091169a50985091965060ff16945092505050565b6000826001600160a01b0316846001600160a01b0316141561035d5760405162461bcd60e51b81526020600482015260136024820152724944454e544943414c5f41444452455353455360681b6044820152606401610292565b600080846001600160a01b0316866001600160a01b031610610380578486610383565b85855b90925090506001600160a01b0382166103cd5760405162461bcd60e51b815260206004820152600c60248201526b5a45524f5f4144445245535360a01b6044820152606401610292565b6001600160a01b038281166000908152602081815260408083208585168452909152902054161561042e5760405162461bcd60e51b815260206004820152600b60248201526a504149525f45584953545360a81b6044820152606401610292565b60408051426020808301829052606086811b6bffffffffffffffffffffffff199081168587015286821b811660548601523390911b1660688401528351605c818503018152607c84018086528151918301919091206001600160a01b038089166000818152808652888120838b1680835290875289822080548587166001600160a01b031991821681179092558389528b842085855289528b8420805482168317905561013c8b018c5260fc8b01848152948852609c8b0192835260bc8b0182815260dc8c019a8b52600161011c909c018c81528c54808e018e558d87528a517fb10e2d527612073b26eecdfd717e6a320cf44b4afac2b0732d9fcbe2b7fa0cf6600690920291820180548616918b1691909117905594517fb10e2d527612073b26eecdfd717e6a320cf44b4afac2b0732d9fcbe2b7fa0cf7860180548516918a1691909117905590517fb10e2d527612073b26eecdfd717e6a320cf44b4afac2b0732d9fcbe2b7fa0cf885018054909316971696909617905597517fb10e2d527612073b26eecdfd717e6a320cf44b4afac2b0732d9fcbe2b7fa0cf982015591517fb10e2d527612073b26eecdfd717e6a320cf44b4afac2b0732d9fcbe2b7fa0cfa83015591517fb10e2d527612073b26eecdfd717e6a320cf44b4afac2b0732d9fcbe2b7fa0cfb909101805460ff19169115159190911790559454938552600290925293909220559350841561064a5761064a84866109e9565b61065383610c0e565b80610662575061066282610c0e565b1561067757610672846001610cb2565b61069d565b680ad78ebc5ac6200000851061069257610672846001610cb2565b61069d846001610cb2565b604080516001600160a01b03868116825242602083015280851692908616917f0d3648bd0f6ba80134a33ba9275ac585d9d315f0ad8355cddefde31afa28d0e9910160405180910390a35050509392505050565b6001600160a01b038116600090815260026020526040902054806107275760405162461bcd60e51b815260040161029290610e7f565b600060016107358184610ebd565b8154811061074557610745610e69565b60009182526020909120600690910201805490915061076c906001600160a01b0316610c0e565b8061078957506001810154610789906001600160a01b0316610c0e565b806107a6575060028101546107a6906001600160a01b0316610c0e565b156107c757600581015460ff166107c2576107c2836001610cb2565b505050565b680ad78ebc5ac620000081600401541061083e57600581015460ff166107c2576107f2836001610cb2565b826001600160a01b03167f80413431cde25e9de215c5a497b067986b40e2a1f310cc0275c3739ca12549b7826004015460405161083191815260200190565b60405180910390a2505050565b6202a30081600301546108519190610ed4565b421161086e57600581015460ff166107c2576107c2836001610cb2565b600581015460ff16156107c25760058101805460ff1916905560048101546040519081526001600160a01b038416907f46380aaa33d02b5847842b079157b4b3c5c49df29248c7fc4b95c819e8c09a1f9060200160405180910390a26004810154604080516000815260208101929092526001600160a01b038516917f083d57c8ed698c66d4c7c4aa93638d9f755bee04e30ee5cab028caa074cf77c79101610831565b600081116109505760405162461bcd60e51b815260206004820152600b60248201526a16915493d7d05353d5539560aa1b6044820152606401610292565b6001600160a01b038216600090815260026020526040902054806109865760405162461bcd60e51b815260040161029290610e7f565b6107c283836109e9565b600181815481106109a057600080fd5b60009182526020909120600690910201805460018201546002830154600384015460048501546005909501546001600160a01b0394851696509284169491909316929160ff1686565b6040516323b872dd60e01b8152336004820152306024820152604481018290527f0000000000000000000000000000000000000000000000000000000000000000906001600160a01b038216906323b872dd90606401602060405180830381600087803b158015610a5957600080fd5b505af1158015610a6d573d6000803e3d6000fd5b505050506040513d601f19601f82011682018060405250810190610a919190610eec565b610ad45760405162461bcd60e51b815260206004820152601460248201527314d51050931157d514905394d1915497d190525360621b6044820152606401610292565b6001600160a01b03831660009081526002602052604090205480610b0a5760405162461bcd60e51b815260040161029290610e7f565b60006001610b188184610ebd565b81548110610b2857610b28610e69565b9060005260206000209060060201905083816004016000828254610b4c9190610ed4565b909155505060048101546040516001600160a01b038716917f359aca8d05c44e10f6a3cff7793d6aa532074fae4219f8de6763bc4060bcc72391610b9891888252602082015260400190565b60405180910390a2680ad78ebc5ac6200000816004015410610c0757610bbf856001610cb2565b846001600160a01b03167f80413431cde25e9de215c5a497b067986b40e2a1f310cc0275c3739ca12549b78260040154604051610bfe91815260200190565b60405180910390a25b5050505050565b60006001600160a01b038216610c2657506000919050565b7f00000000000000000000000000000000000000000000000000000000000000006001600160a01b0316826001600160a01b03161415610c6857506001919050565b7f00000000000000000000000000000000000000000000000000000000000000006001600160a01b0316826001600160a01b03161415610caa57506001919050565b506000919050565b6001600160a01b03821660009081526002602052604090205480610ce85760405162461bcd60e51b815260040161029290610e7f565b60006001610cf68184610ebd565b81548110610d0657610d06610e69565b600091825260209182902060069091020160058101805460ff1916861515908117909155600482015460408051928352938201529092506001600160a01b038616917f083d57c8ed698c66d4c7c4aa93638d9f755bee04e30ee5cab028caa074cf77c7910160405180910390a250505050565b600060208284031215610d8b57600080fd5b5035919050565b80356001600160a01b0381168114610da957600080fd5b919050565b600060208284031215610dc057600080fd5b610dc982610d92565b9392505050565b600080600060608486031215610de557600080fd5b610dee84610d92565b9250610dfc60208501610d92565b9150604084013590509250925092565b60008060408385031215610e1f57600080fd5b610e2883610d92565b946020939093013593505050565b60008060408385031215610e4957600080fd5b610e5283610d92565b9150610e6060208401610d92565b90509250929050565b634e487b7160e01b600052603260045260246000fd5b6020808252600e908201526d1410525497d393d517d193d5539160921b604082015260600190565b634e487b7160e01b600052601160045260246000fd5b600082821015610ecf57610ecf610ea7565b500390565b60008219821115610ee757610ee7610ea7565b500190565b600060208284031215610efe57600080fd5b81518015158114610dc957600080fdfea2646970667358221220638758256fbccb6542f0cf654829523a0e1176c9b6188b9a400fb3be1757749d64736f6c63430008090033",
  "linkReferences": {},
  "deployedLinkReferences": {}
}