{
  "_format": "hh-sol-artifact-1",
  "contractName": "AMMPair",
  "sourceName": "contracts/AMMRouter.sol",
  "abi": [
    {
      "inputs": [],
      "stateMutability": "nonpayable",
      "type": "constructor"
    },
    {
      "anonymous": false,
      "inputs": [
        {
          "indexed": true,
          "internalType": "address",
          "name": "sender",
          "type": "address"
        },
        {
          "indexed": false,
          "internalType": "uint256",
          "name": "amount0",
          "type": "uint256"
        },
        {
          "indexed": false,
          "internalType": "uint256",
          "name": "amount1",
          "type": "uint256"
        }
      ],
      "name": "Mint",
      "type": "event"
    },
    {
      "anonymous": false,
      "inputs": [
        {
          "indexed": true,
          "internalType": "address",
          "name": "sender",
          "type": "address"
        },
        {
          "indexed": false,
          "internalType": "uint256",
          "name": "amount0In",
          "type": "uint256"
        },
        {
          "indexed": false,
          "internalType": "uint256",
          "name": "amount1In",
          "type": "uint256"
        },
        {
          "indexed": false,
          "internalType": "uint256",
          "name": "amount0Out",
          "type": "uint256"
        },
        {
          "indexed": false,
          "internalType": "uint256",
          "name": "amount1Out",
          "type": "uint256"
        },
        {
          "indexed": false,
          "internalType": "address",
          "name": "to",
          "type": "address"
        }
      ],
      "name": "Swap",
      "type": "event"
    },
    {
      "inputs": [
        {
          "internalType": "uint256",
          "name": "amount0",
          "type": "uint256"
        },
        {
          "internalType": "uint256",
          "name": "amount1",
          "type": "uint256"
        }
      ],
      "name": "addLiquidity",
      "outputs": [],
      "stateMutability": "nonpayable",
      "type": "function"
    },
    {
      "inputs": [],
      "name": "getReserves",
      "outputs": [
        {
          "internalType": "uint112",
          "name": "",
          "type": "uint112"
        },
        {
          "internalType": "uint112",
          "name": "",
          "type": "uint112"
        },
        {
          "internalType": "uint32",
          "name": "",
          "type": "uint32"
        }
      ],
      "stateMutability": "view",
      "type": "function"
    },
    {
      "inputs": [
        {
          "internalType": "address",
          "name": "_token0",
          "type": "address"
        },
        {
          "internalType": "address",
          "name": "_token1",
          "type": "address"
        }
      ],
      "name": "initialize",
      "outputs": [],
      "stateMutability": "nonpayable",
      "type": "function"
    },
    {
      "inputs": [
        {
          "internalType": "uint256",
          "name": "amount0Out",
          "type": "uint256"
        },
        {
          "internalType": "uint256",
          "name": "amount1Out",
          "type": "uint256"
        },
        {
          "internalType": "address",
          "name": "to",
          "type": "address"
        }
      ],
      "name": "swap",
      "outputs": [],
      "stateMutability": "nonpayable",
      "type": "function"
    },
    {
      "inputs": [],
      "name": "token0",
      "outputs": [
        {
          "internalType": "address",
          "name": "",
          "type": "address"
        }
      ],
      "stateMutability": "view",
      "type": "function"
    },
    {
      "inputs": [],
      "name": "token1",
      "outputs": [
        {
          "internalType": "address",
          "name": "",
          "type": "address"
        }
      ],
      "stateMutability": "view",
      "type": "function"
    }
  ],
  "bytecode": "0x608060405234801561001057600080fd5b506109a2806100206000396000f3fe608060405234801561001057600080fd5b50600436106100625760003560e01c80630902f1ac146100675780630dfe1681146100a7578063485cc955146100d25780636d9a640a146100e75780639cd441da146100fa578063d21220a71461010d575b600080fd5b600254604080516001600160701b038084168252600160701b8404166020820152600160e01b90920463ffffffff16908201526060015b60405180910390f35b6000546100ba906001600160a01b031681565b6040516001600160a01b03909116815260200161009e565b6100e56100e0366004610832565b610120565b005b6100e56100f5366004610865565b6101ab565b6100e561010836600461089a565b610510565b6001546100ba906001600160a01b031681565b6000546001600160a01b031615801561014257506001546001600160a01b0316155b61017d5760405162461bcd60e51b8152602060048201526007602482015266414c524541445960c81b60448201526064015b60405180910390fd5b600080546001600160a01b039384166001600160a01b03199182161790915560018054929093169116179055565b60008311806101ba5750600082115b6101fc5760405162461bcd60e51b8152602060048201526013602482015272125394d551919250d251539517d3d555141555606a1b6044820152606401610174565b821561028a5760005460405163a9059cbb60e01b81526001600160a01b038381166004830152602482018690529091169063a9059cbb90604401602060405180830381600087803b15801561025057600080fd5b505af1158015610264573d6000803e3d6000fd5b505050506040513d601f19601f8201168201806040525081019061028891906108bc565b505b81156103185760015460405163a9059cbb60e01b81526001600160a01b038381166004830152602482018590529091169063a9059cbb90604401602060405180830381600087803b1580156102de57600080fd5b505af11580156102f2573d6000803e3d6000fd5b505050506040513d601f19601f8201168201806040525081019061031691906108bc565b505b600080546040516370a0823160e01b81523060048201526001600160a01b03909116906370a082319060240160206040518083038186803b15801561035c57600080fd5b505afa158015610370573d6000803e3d6000fd5b505050506040513d601f19601f8201168201806040525081019061039491906108e5565b6001546040516370a0823160e01b81523060048201529192506000916001600160a01b03909116906370a082319060240160206040518083038186803b1580156103dd57600080fd5b505afa1580156103f1573d6000803e3d6000fd5b505050506040513d601f19601f8201168201806040525081019061041591906108e5565b600254909150610437906001600160701b03600160701b820481169116610914565b6104418284610914565b10156104735760405162461bcd60e51b81526020600482015260016024820152604b60f81b6044820152606401610174565b61047d82826107bb565b60025433907fd78ad95fa46c994b6551d0da85fc275fe613ce37657fb8d5e3d130840159d822906104b7906001600160701b031685610933565b6002546104d490600160701b90046001600160701b031685610933565b6040805192835260208301919091528101889052606081018790526001600160a01b038616608082015260a00160405180910390a25050505050565b6000821180156105205750600081115b61055b5760405162461bcd60e51b815260206004820152600c60248201526b5a45524f5f414d4f554e545360a01b6044820152606401610174565b6000546040516323b872dd60e01b8152336004820152306024820152604481018490526001600160a01b03909116906323b872dd90606401602060405180830381600087803b1580156105ad57600080fd5b505af11580156105c1573d6000803e3d6000fd5b505050506040513d601f19601f820116820180604052508101906105e591906108bc565b506001546040516323b872dd60e01b8152336004820152306024820152604481018390526001600160a01b03909116906323b872dd90606401602060405180830381600087803b15801561063857600080fd5b505af115801561064c573d6000803e3d6000fd5b505050506040513d601f19601f8201168201806040525081019061067091906108bc565b50600080546040516370a0823160e01b81523060048201526001600160a01b03909116906370a082319060240160206040518083038186803b1580156106b557600080fd5b505afa1580156106c9573d6000803e3d6000fd5b505050506040513d601f19601f820116820180604052508101906106ed91906108e5565b6001546040516370a0823160e01b81523060048201529192506000916001600160a01b03909116906370a082319060240160206040518083038186803b15801561073657600080fd5b505afa15801561074a573d6000803e3d6000fd5b505050506040513d601f19601f8201168201806040525081019061076e91906108e5565b905061077a82826107bb565b604080518581526020810185905233917f4c209b5fc8ad50758f13e2e1088ba56a560dff690a1c6fef26394f4c03821c4f910160405180910390a250505050565b600280546001600160701b03838116600160701b026001600160e01b0319909216908516171790556107f26401000000004261094a565b6002601c6101000a81548163ffffffff021916908363ffffffff1602179055505050565b80356001600160a01b038116811461082d57600080fd5b919050565b6000806040838503121561084557600080fd5b61084e83610816565b915061085c60208401610816565b90509250929050565b60008060006060848603121561087a57600080fd5b833592506020840135915061089160408501610816565b90509250925092565b600080604083850312156108ad57600080fd5b50508035926020909101359150565b6000602082840312156108ce57600080fd5b815180151581146108de57600080fd5b9392505050565b6000602082840312156108f757600080fd5b5051919050565b634e487b7160e01b600052601160045260246000fd5b600081600019048311821515161561092e5761092e6108fe565b500290565b600082821015610945576109456108fe565b500390565b60008261096757634e487b7160e01b600052601260045260246000fd5b50069056fea26469706673582212201f81ed599ce3365c0f7cc625dc2391de583800ed9adceaf62d2d5d3feea8b45e64736f6c63430008090033",
  "linkReferences": {},
  "deployedLinkReferences": {}
}