{
  "_format": "hh-sol-artifact-1",
  "contractName": "AMMRouter",
  "sourceName": "contracts/AMMRouter.sol",
  "abi": [
    {
      "inputs": [
        {
          "internalType": "address",
          "name": "_factory",
          "type": "address"
        }
      ],
      "stateMutability": "nonpayable",
      "type": "constructor"
    },
    {
      "inputs": [
        {
          "internalType": "address",
          "name": "tokenA",
          "type": "address"
        },
        {
          "internalType": "address",
          "name": "tokenB",
          "type": "address"
        },
        {
          "internalType": "uint256",
          "name": "amountA",
          "type": "uint256"
        },
        {
          "internalType": "uint256",
          "name": "amountB",
          "type": "uint256"
        }
      ],
      "name": "addLiquidity",
      "outputs": [],
      "stateMutability": "nonpayable",
      "type": "function"
    },
    {
      "inputs": [],
      "name": "factory",
      "outputs": [
        {
          "internalType": "address",
          "name": "",
          "type": "address"
        }
      ],
      "stateMutability": "view",
      "type": "function"
    },
    {
      "inputs": [
        {
          "internalType": "address",
          "name": "tokenIn",
          "type": "address"
        },
        {
          "internalType": "address",
          "name": "tokenOut",
          "type": "address"
        },
        {
          "internalType": "uint256",
          "name": "amountIn",
          "type": "uint256"
        },
        {
          "internalType": "uint256",
          "name": "minOut",
          "type": "uint256"
        },
        {
          "internalType": "address",
          "name": "to",
          "type": "address"
        }
      ],
      "name": "swapExactTokensForTokens",
      "outputs": [],
      "stateMutability": "nonpayable",
      "type": "function"
    }
  ],
  "bytecode": "0x608060405234801561001057600080fd5b50604051610a38380380610a3883398101604081905261002f91610054565b600080546001600160a01b0319166001600160a01b0392909216919091179055610084565b60006020828403121561006657600080fd5b81516001600160a01b038116811461007d57600080fd5b9392505050565b6109a5806100936000396000f3fe608060405234801561001057600080fd5b50600436106100415760003560e01c80636c08c57e14610046578063c45a01551461005b578063cf6c62ea1461008a575b600080fd5b61005961005436600461076e565b61009d565b005b60005461006e906001600160a01b031681565b6040516001600160a01b03909116815260200160405180910390f35b6100596100983660046107cd565b61046a565b6000805460405163e6a4390560e01b81526001600160a01b03888116600483015287811660248301529091169063e6a439059060440160206040518083038186803b1580156100eb57600080fd5b505afa1580156100ff573d6000803e3d6000fd5b505050506040513d601f19601f820116820180604052508101906101239190610813565b90506001600160a01b03811661016a5760405162461bcd60e51b81526020600482015260076024820152662727afa820a4a960c91b60448201526064015b60405180910390fd5b6040516323b872dd60e01b81526001600160a01b038716906323b872dd9061019a90339085908990600401610837565b602060405180830381600087803b1580156101b457600080fd5b505af11580156101c8573d6000803e3d6000fd5b505050506040513d601f19601f820116820180604052508101906101ec919061085b565b50600080826001600160a01b0316630902f1ac6040518163ffffffff1660e01b815260040160606040518083038186803b15801561022957600080fd5b505afa15801561023d573d6000803e3d6000fd5b505050506040513d601f19601f820116820180604052508101906102619190610899565b50915091506000876001600160a01b0316896001600160a01b03161061028857878961028b565b88885b5090506000896001600160a01b0316826001600160a01b031614156103025760006102bf896001600160701b0387166108ff565b90506000816102da6001600160701b03808816908916610917565b6102e49190610936565b90506102f9816001600160701b038716610958565b92505050610356565b6000610317896001600160701b0386166108ff565b90506000816103326001600160701b03808816908916610917565b61033c9190610936565b9050610351816001600160701b038816610958565b925050505b868110156103a65760405162461bcd60e51b815260206004820152601a60248201527f494e53554646494349454e545f4f55545055545f414d4f554e540000000000006044820152606401610161565b846001600160a01b0316636d9a640a8b6001600160a01b0316846001600160a01b0316146103d457826103d7565b60005b8c6001600160a01b0316856001600160a01b0316146103f75760006103f9565b835b6040516001600160e01b031960e085901b168152600481019290925260248201526001600160a01b0389166044820152606401600060405180830381600087803b15801561044657600080fd5b505af115801561045a573d6000803e3d6000fd5b5050505050505050505050505050565b6000805460405163e6a4390560e01b81526001600160a01b03878116600483015286811660248301529091169063e6a439059060440160206040518083038186803b1580156104b857600080fd5b505afa1580156104cc573d6000803e3d6000fd5b505050506040513d601f19601f820116820180604052508101906104f09190610813565b90506001600160a01b0381166105895760008054604051631ad8034760e21b81526001600160a01b0390911691636b600d1c91610534918991899190600401610837565b602060405180830381600087803b15801561054e57600080fd5b505af1158015610562573d6000803e3d6000fd5b505050506040513d601f19601f820116820180604052508101906105869190610813565b90505b6040516323b872dd60e01b81526001600160a01b038616906323b872dd906105b990339085908890600401610837565b602060405180830381600087803b1580156105d357600080fd5b505af11580156105e7573d6000803e3d6000fd5b505050506040513d601f19601f8201168201806040525081019061060b919061085b565b506040516323b872dd60e01b81526001600160a01b038516906323b872dd9061063c90339085908790600401610837565b602060405180830381600087803b15801561065657600080fd5b505af115801561066a573d6000803e3d6000fd5b505050506040513d601f19601f8201168201806040525081019061068e919061085b565b50604051634e6a20ed60e11b815260048101849052602481018390526001600160a01b03821690639cd441da90604401600060405180830381600087803b1580156106d857600080fd5b505af11580156106ec573d6000803e3d6000fd5b5050600054604051637718507560e01b81526001600160a01b038581166004830152909116925063771850759150602401600060405180830381600087803b15801561073757600080fd5b505af115801561074b573d6000803e3d6000fd5b505050505050505050565b6001600160a01b038116811461076b57600080fd5b50565b600080600080600060a0868803121561078657600080fd5b853561079181610756565b945060208601356107a181610756565b9350604086013592506060860135915060808601356107bf81610756565b809150509295509295909350565b600080600080608085870312156107e357600080fd5b84356107ee81610756565b935060208501356107fe81610756565b93969395505050506040820135916060013590565b60006020828403121561082557600080fd5b815161083081610756565b9392505050565b6001600160a01b039384168152919092166020820152604081019190915260600190565b60006020828403121561086d57600080fd5b8151801515811461083057600080fd5b80516001600160701b038116811461089457600080fd5b919050565b6000806000606084860312156108ae57600080fd5b6108b78461087d565b92506108c56020850161087d565b9150604084015163ffffffff811681146108de57600080fd5b809150509250925092565b634e487b7160e01b600052601160045260246000fd5b60008219821115610912576109126108e9565b500190565b6000816000190483118215151615610931576109316108e9565b500290565b60008261095357634e487b7160e01b600052601260045260246000fd5b500490565b60008282101561096a5761096a6108e9565b50039056fea2646970667358221220f1c14c504d0a0952c3dffdad3c2cc37b099a72308dd30bfe6e16d4790a6d005464736f6c63430008090033",
  "linkReferences": {},
  "deployedLinkReferences": {}
}